{
  "contractName": "CardGame",
  "abi": [
    {
      "inputs": [],
      "stateMutability": "nonpayable",
      "type": "constructor"
    },
    {
      "anonymous": false,
      "inputs": [
        {
          "indexed": true,
          "internalType": "address",
          "name": "owner",
          "type": "address"
        },
        {
          "indexed": true,
          "internalType": "address",
          "name": "approved",
          "type": "address"
        },
        {
          "indexed": true,
          "internalType": "uint256",
          "name": "tokenId",
          "type": "uint256"
        }
      ],
      "name": "Approval",
      "type": "event"
    },
    {
      "anonymous": false,
      "inputs": [
        {
          "indexed": true,
          "internalType": "address",
          "name": "owner",
          "type": "address"
        },
        {
          "indexed": true,
          "internalType": "address",
          "name": "operator",
          "type": "address"
        },
        {
          "indexed": false,
          "internalType": "bool",
          "name": "approved",
          "type": "bool"
        }
      ],
      "name": "ApprovalForAll",
      "type": "event"
    },
    {
      "anonymous": false,
      "inputs": [
        {
          "indexed": false,
          "internalType": "address",
          "name": "player",
          "type": "address"
        }
      ],
      "name": "HandMinted",
      "type": "event"
    },
    {
      "anonymous": false,
      "inputs": [
        {
          "indexed": true,
          "internalType": "address",
          "name": "previousOwner",
          "type": "address"
        },
        {
          "indexed": true,
          "internalType": "address",
          "name": "newOwner",
          "type": "address"
        }
      ],
      "name": "OwnershipTransferred",
      "type": "event"
    },
    {
      "anonymous": false,
      "inputs": [
        {
          "indexed": true,
          "internalType": "address",
          "name": "from",
          "type": "address"
        },
        {
          "indexed": true,
          "internalType": "address",
          "name": "to",
          "type": "address"
        },
        {
          "indexed": true,
          "internalType": "uint256",
          "name": "tokenId",
          "type": "uint256"
        }
      ],
      "name": "Transfer",
      "type": "event"
    },
    {
      "inputs": [
        {
          "internalType": "address",
          "name": "to",
          "type": "address"
        },
        {
          "internalType": "uint256",
          "name": "tokenId",
          "type": "uint256"
        }
      ],
      "name": "approve",
      "outputs": [],
      "stateMutability": "nonpayable",
      "type": "function"
    },
    {
      "inputs": [
        {
          "internalType": "address",
          "name": "owner",
          "type": "address"
        }
      ],
      "name": "balanceOf",
      "outputs": [
        {
          "internalType": "uint256",
          "name": "",
          "type": "uint256"
        }
      ],
      "stateMutability": "view",
      "type": "function",
      "constant": true
    },
    {
      "inputs": [],
      "name": "baseURI",
      "outputs": [
        {
          "internalType": "string",
          "name": "",
          "type": "string"
        }
      ],
      "stateMutability": "view",
      "type": "function",
      "constant": true
    },
    {
      "inputs": [],
      "name": "currentDeckIdx",
      "outputs": [
        {
          "internalType": "uint256",
          "name": "",
          "type": "uint256"
        }
      ],
      "stateMutability": "view",
      "type": "function",
      "constant": true
    },
    {
      "inputs": [
        {
          "internalType": "uint256",
          "name": "",
          "type": "uint256"
        }
      ],
      "name": "currentDeckTaken",
      "outputs": [
        {
          "internalType": "uint256",
          "name": "",
          "type": "uint256"
        }
      ],
      "stateMutability": "view",
      "type": "function",
      "constant": true
    },
    {
      "inputs": [
        {
          "internalType": "uint256",
          "name": "tokenId",
          "type": "uint256"
        }
      ],
      "name": "getApproved",
      "outputs": [
        {
          "internalType": "address",
          "name": "",
          "type": "address"
        }
      ],
      "stateMutability": "view",
      "type": "function",
      "constant": true
    },
    {
      "inputs": [
        {
          "internalType": "address",
          "name": "owner",
          "type": "address"
        },
        {
          "internalType": "address",
          "name": "operator",
          "type": "address"
        }
      ],
      "name": "isApprovedForAll",
      "outputs": [
        {
          "internalType": "bool",
          "name": "",
          "type": "bool"
        }
      ],
      "stateMutability": "view",
      "type": "function",
      "constant": true
    },
    {
      "inputs": [],
      "name": "name",
      "outputs": [
        {
          "internalType": "string",
          "name": "",
          "type": "string"
        }
      ],
      "stateMutability": "view",
      "type": "function",
      "constant": true
    },
    {
      "inputs": [],
      "name": "nftId",
      "outputs": [
        {
          "internalType": "uint256",
          "name": "",
          "type": "uint256"
        }
      ],
      "stateMutability": "view",
      "type": "function",
      "constant": true
    },
    {
      "inputs": [],
      "name": "owner",
      "outputs": [
        {
          "internalType": "address",
          "name": "",
          "type": "address"
        }
      ],
      "stateMutability": "view",
      "type": "function",
      "constant": true
    },
    {
      "inputs": [
        {
          "internalType": "uint256",
          "name": "tokenId",
          "type": "uint256"
        }
      ],
      "name": "ownerOf",
      "outputs": [
        {
          "internalType": "address",
          "name": "",
          "type": "address"
        }
      ],
      "stateMutability": "view",
      "type": "function",
      "constant": true
    },
    {
      "inputs": [
        {
          "internalType": "uint256",
          "name": "",
          "type": "uint256"
        }
      ],
      "name": "players",
      "outputs": [
        {
          "internalType": "address",
          "name": "",
          "type": "address"
        }
      ],
      "stateMutability": "view",
      "type": "function",
      "constant": true
    },
    {
      "inputs": [],
      "name": "renounceOwnership",
      "outputs": [],
      "stateMutability": "nonpayable",
      "type": "function"
    },
    {
      "inputs": [
        {
          "internalType": "address",
          "name": "from",
          "type": "address"
        },
        {
          "internalType": "address",
          "name": "to",
          "type": "address"
        },
        {
          "internalType": "uint256",
          "name": "tokenId",
          "type": "uint256"
        }
      ],
      "name": "safeTransferFrom",
      "outputs": [],
      "stateMutability": "nonpayable",
      "type": "function"
    },
    {
      "inputs": [
        {
          "internalType": "address",
          "name": "from",
          "type": "address"
        },
        {
          "internalType": "address",
          "name": "to",
          "type": "address"
        },
        {
          "internalType": "uint256",
          "name": "tokenId",
          "type": "uint256"
        },
        {
          "internalType": "bytes",
          "name": "_data",
          "type": "bytes"
        }
      ],
      "name": "safeTransferFrom",
      "outputs": [],
      "stateMutability": "nonpayable",
      "type": "function"
    },
    {
      "inputs": [
        {
          "internalType": "address",
          "name": "operator",
          "type": "address"
        },
        {
          "internalType": "bool",
          "name": "approved",
          "type": "bool"
        }
      ],
      "name": "setApprovalForAll",
      "outputs": [],
      "stateMutability": "nonpayable",
      "type": "function"
    },
    {
      "inputs": [
        {
          "internalType": "bytes4",
          "name": "interfaceId",
          "type": "bytes4"
        }
      ],
      "name": "supportsInterface",
      "outputs": [
        {
          "internalType": "bool",
          "name": "",
          "type": "bool"
        }
      ],
      "stateMutability": "view",
      "type": "function",
      "constant": true
    },
    {
      "inputs": [],
      "name": "symbol",
      "outputs": [
        {
          "internalType": "string",
          "name": "",
          "type": "string"
        }
      ],
      "stateMutability": "view",
      "type": "function",
      "constant": true
    },
    {
      "inputs": [
        {
          "internalType": "uint256",
          "name": "index",
          "type": "uint256"
        }
      ],
      "name": "tokenByIndex",
      "outputs": [
        {
          "internalType": "uint256",
          "name": "",
          "type": "uint256"
        }
      ],
      "stateMutability": "view",
      "type": "function",
      "constant": true
    },
    {
      "inputs": [
        {
          "internalType": "address",
          "name": "owner",
          "type": "address"
        },
        {
          "internalType": "uint256",
          "name": "index",
          "type": "uint256"
        }
      ],
      "name": "tokenOfOwnerByIndex",
      "outputs": [
        {
          "internalType": "uint256",
          "name": "",
          "type": "uint256"
        }
      ],
      "stateMutability": "view",
      "type": "function",
      "constant": true
    },
    {
      "inputs": [
        {
          "internalType": "uint256",
          "name": "tokenId",
          "type": "uint256"
        }
      ],
      "name": "tokenURI",
      "outputs": [
        {
          "internalType": "string",
          "name": "",
          "type": "string"
        }
      ],
      "stateMutability": "view",
      "type": "function",
      "constant": true
    },
    {
      "inputs": [],
      "name": "totalSupply",
      "outputs": [
        {
          "internalType": "uint256",
          "name": "",
          "type": "uint256"
        }
      ],
      "stateMutability": "view",
      "type": "function",
      "constant": true
    },
    {
      "inputs": [
        {
          "internalType": "address",
          "name": "from",
          "type": "address"
        },
        {
          "internalType": "address",
          "name": "to",
          "type": "address"
        },
        {
          "internalType": "uint256",
          "name": "tokenId",
          "type": "uint256"
        }
      ],
      "name": "transferFrom",
      "outputs": [],
      "stateMutability": "nonpayable",
      "type": "function"
    },
    {
      "inputs": [
        {
          "internalType": "address",
          "name": "newOwner",
          "type": "address"
        }
      ],
      "name": "transferOwnership",
      "outputs": [],
      "stateMutability": "nonpayable",
      "type": "function"
    },
    {
      "inputs": [
        {
          "internalType": "uint256",
          "name": "tokenId",
          "type": "uint256"
        }
      ],
      "name": "getTokenDetails",
      "outputs": [
        {
          "components": [
            {
              "internalType": "uint256",
              "name": "deckIdx",
              "type": "uint256"
            },
            {
              "internalType": "uint256",
              "name": "cardIdx",
              "type": "uint256"
            },
            {
              "internalType": "uint256",
              "name": "suitTypeIdx",
              "type": "uint256"
            },
            {
              "internalType": "bool",
              "name": "isHandCard",
              "type": "bool"
            }
          ],
          "internalType": "struct CardGame.Card",
          "name": "",
          "type": "tuple"
        }
      ],
      "stateMutability": "view",
      "type": "function",
      "constant": true
    },
    {
      "inputs": [],
      "name": "getDeckTaken",
      "outputs": [
        {
          "internalType": "uint256[]",
          "name": "",
          "type": "uint256[]"
        }
      ],
      "stateMutability": "view",
      "type": "function",
      "constant": true
    },
    {
      "inputs": [],
      "name": "getPlayers",
      "outputs": [
        {
          "internalType": "address[]",
          "name": "",
          "type": "address[]"
        }
      ],
      "stateMutability": "view",
      "type": "function",
      "constant": true
    },
    {
      "inputs": [
        {
          "internalType": "uint256",
          "name": "tokenId",
          "type": "uint256"
        }
      ],
      "name": "getOwnerOf",
      "outputs": [
        {
          "internalType": "address",
          "name": "",
          "type": "address"
        }
      ],
      "stateMutability": "view",
      "type": "function",
      "constant": true
    },
    {
      "inputs": [
        {
          "internalType": "address",
          "name": "myAddr",
          "type": "address"
        }
      ],
      "name": "getInHandTokens",
      "outputs": [
        {
          "internalType": "uint256[]",
          "name": "",
          "type": "uint256[]"
        }
      ],
      "stateMutability": "view",
      "type": "function",
      "constant": true
    },
    {
      "inputs": [
        {
          "components": [
            {
              "internalType": "uint256",
              "name": "deckIdx",
              "type": "uint256"
            },
            {
              "internalType": "uint256",
              "name": "cardIdx",
              "type": "uint256"
            },
            {
              "internalType": "uint256",
              "name": "suitTypeIdx",
              "type": "uint256"
            },
            {
              "internalType": "bool",
              "name": "isHandCard",
              "type": "bool"
            }
          ],
          "internalType": "struct CardGame.Card[]",
          "name": "card_hand",
          "type": "tuple[]"
        }
      ],
      "name": "mintNewHand",
      "outputs": [],
      "stateMutability": "nonpayable",
      "type": "function"
    }
  ],
  "bytecode": "0x60806040526000600b556000600c553480156200001b57600080fd5b506040518060400160405280600981526020017f436173696e6f4e465400000000000000000000000000000000000000000000008152506040518060400160405280600381526020017f4d4f4f0000000000000000000000000000000000000000000000000000000000815250620000a06301ffc9a760e01b620001d360201b60201c565b8160069080519060200190620000b8929190620002b3565b508060079080519060200190620000d1929190620002b3565b50620000ea6380ac58cd60e01b620001d360201b60201c565b62000102635b5e139f60e01b620001d360201b60201c565b6200011a63780e9d6360e01b620001d360201b60201c565b505060006200012e620002ab60201b60201c565b905080600a60006101000a81548173ffffffffffffffffffffffffffffffffffffffff021916908373ffffffffffffffffffffffffffffffffffffffff1602179055508073ffffffffffffffffffffffffffffffffffffffff16600073ffffffffffffffffffffffffffffffffffffffff167f8be0079c531659141344cd1fd0a4f28419497f9722a3daafe3b4186f6b6457e060405160405180910390a350620003ce565b63ffffffff60e01b817bffffffffffffffffffffffffffffffffffffffffffffffffffffffff191614156200023f576040517f08c379a000000000000000000000000000000000000000000000000000000000815260040162000236906200039b565b60405180910390fd5b6001600080837bffffffffffffffffffffffffffffffffffffffffffffffffffffffff19167bffffffffffffffffffffffffffffffffffffffffffffffffffffffff1916815260200190815260200160002060006101000a81548160ff02191690831515021790555050565b600033905090565b828054600181600116156101000203166002900490600052602060002090601f016020900481019282601f10620002f657805160ff191683800117855562000327565b8280016001018555821562000327579182015b828111156200032657825182559160200191906001019062000309565b5b5090506200033691906200033a565b5090565b5b80821115620003555760008160009055506001016200033b565b5090565b600062000368601c83620003bd565b91507f4552433136353a20696e76616c696420696e74657266616365206964000000006000830152602082019050919050565b60006020820190508181036000830152620003b68162000359565b9050919050565b600082825260208201905092915050565b613c3080620003de6000396000f3fe608060405234801561001057600080fd5b50600436106101da5760003560e01c80638b5b9ccc11610104578063c87b56dd116100a2578063f2fde38b11610071578063f2fde38b146105a5578063f34f4c96146105c1578063f71d96cb146105df578063fc1067581461060f576101da565b8063c87b56dd146104f7578063e985e9c514610527578063ead2ae2514610557578063eaec285814610587576101da565b8063a22cb465116100de578063a22cb46514610471578063b88d4fde1461048d578063c1e03728146104a9578063c6bc5182146104d9576101da565b80638b5b9ccc146104175780638da5cb5b1461043557806395d89b4114610453576101da565b806342842e0e1161017c5780636c0360eb1161014b5780636c0360eb1461038f57806370a08231146103ad578063715018a6146103dd57806383638710146103e7576101da565b806342842e0e146102e35780634f6ccce7146102ff57806350f0aa991461032f5780636352211e1461035f576101da565b8063095ea7b3116101b8578063095ea7b31461025d57806318160ddd1461027957806323b872dd146102975780632f745c59146102b3576101da565b806301ffc9a7146101df57806306fdde031461020f578063081812fc1461022d575b600080fd5b6101f960048036038101906101f49190612b43565b61062b565b6040516102069190613620565b60405180910390f35b610217610692565b604051610224919061363b565b60405180910390f35b61024760048036038101906102429190612b95565b610734565b604051610254919061355a565b60405180910390f35b61027760048036038101906102729190612ac6565b6107b9565b005b6102816108d1565b60405161028e91906138d8565b60405180910390f35b6102b160048036038101906102ac91906129c0565b6108e2565b005b6102cd60048036038101906102c89190612ac6565b610942565b6040516102da91906138d8565b60405180910390f35b6102fd60048036038101906102f891906129c0565b61099d565b005b61031960048036038101906103149190612b95565b6109bd565b60405161032691906138d8565b60405180910390f35b6103496004803603810190610344919061295b565b6109e0565b60405161035691906135fe565b60405180910390f35b61037960048036038101906103749190612b95565b610a77565b604051610386919061355a565b60405180910390f35b610397610aae565b6040516103a4919061363b565b60405180910390f35b6103c760048036038101906103c2919061295b565b610b50565b6040516103d491906138d8565b60405180910390f35b6103e5610c0f565b005b61040160048036038101906103fc9190612b95565b610d4c565b60405161040e919061355a565b60405180910390f35b61041f610d5e565b60405161042c91906135dc565b60405180910390f35b61043d610dec565b60405161044a919061355a565b60405180910390f35b61045b610e16565b604051610468919061363b565b60405180910390f35b61048b60048036038101906104869190612a8a565b610eb8565b005b6104a760048036038101906104a29190612a0f565b611039565b005b6104c360048036038101906104be9190612b95565b61109b565b6040516104d091906138bd565b60405180910390f35b6104e1611101565b6040516104ee91906138d8565b60405180910390f35b610511600480360381019061050c9190612b95565b611107565b60405161051e919061363b565b60405180910390f35b610541600480360381019061053c9190612984565b61128a565b60405161054e9190613620565b60405180910390f35b610571600480360381019061056c9190612b95565b61131e565b60405161057e91906138d8565b60405180910390f35b61058f61133f565b60405161059c91906135fe565b60405180910390f35b6105bf60048036038101906105ba919061295b565b611397565b005b6105c9611543565b6040516105d691906138d8565b60405180910390f35b6105f960048036038101906105f49190612b95565b611549565b604051610606919061355a565b60405180910390f35b61062960048036038101906106249190612b02565b611585565b005b6000806000837bffffffffffffffffffffffffffffffffffffffffffffffffffffffff19167bffffffffffffffffffffffffffffffffffffffffffffffffffffffff1916815260200190815260200160002060009054906101000a900460ff169050919050565b606060068054600181600116156101000203166002900480601f01602080910402602001604051908101604052809291908181526020018280546001816001161561010002031660029004801561072a5780601f106106ff5761010080835404028352916020019161072a565b820191906000526020600020905b81548152906001019060200180831161070d57829003601f168201915b5050505050905090565b600061073f826117c1565b61077e576040517f08c379a0000000000000000000000000000000000000000000000000000000008152600401610775906137dd565b60405180910390fd5b6004600083815260200190815260200160002060009054906101000a900473ffffffffffffffffffffffffffffffffffffffff169050919050565b60006107c482610a77565b90508073ffffffffffffffffffffffffffffffffffffffff168373ffffffffffffffffffffffffffffffffffffffff161415610835576040517f08c379a000000000000000000000000000000000000000000000000000000000815260040161082c9061385d565b60405180910390fd5b8073ffffffffffffffffffffffffffffffffffffffff166108546117de565b73ffffffffffffffffffffffffffffffffffffffff16148061088357506108828161087d6117de565b61128a565b5b6108c2576040517f08c379a00000000000000000000000000000000000000000000000000000000081526004016108b99061375d565b60405180910390fd5b6108cc83836117e6565b505050565b60006108dd600261189f565b905090565b6108f36108ed6117de565b826118b4565b610932576040517f08c379a00000000000000000000000000000000000000000000000000000000081526004016109299061387d565b60405180910390fd5b61093d838383611992565b505050565b600061099582600160008673ffffffffffffffffffffffffffffffffffffffff1673ffffffffffffffffffffffffffffffffffffffff168152602001908152602001600020611ba990919063ffffffff16565b905092915050565b6109b883838360405180602001604052806000815250611039565b505050565b6000806109d4836002611bc390919063ffffffff16565b50905080915050919050565b6060601060008373ffffffffffffffffffffffffffffffffffffffff1673ffffffffffffffffffffffffffffffffffffffff168152602001908152602001600020805480602002602001604051908101604052809291908181526020018280548015610a6b57602002820191906000526020600020905b815481526020019060010190808311610a57575b50505050509050919050565b6000610aa782604051806060016040528060298152602001613bd2602991396002611bef9092919063ffffffff16565b9050919050565b606060098054600181600116156101000203166002900480601f016020809104026020016040519081016040528092919081815260200182805460018160011615610100020316600290048015610b465780601f10610b1b57610100808354040283529160200191610b46565b820191906000526020600020905b815481529060010190602001808311610b2957829003601f168201915b5050505050905090565b60008073ffffffffffffffffffffffffffffffffffffffff168273ffffffffffffffffffffffffffffffffffffffff161415610bc1576040517f08c379a0000000000000000000000000000000000000000000000000000000008152600401610bb89061377d565b60405180910390fd5b610c08600160008473ffffffffffffffffffffffffffffffffffffffff1673ffffffffffffffffffffffffffffffffffffffff168152602001908152602001600020611c0e565b9050919050565b610c176117de565b73ffffffffffffffffffffffffffffffffffffffff16610c35610dec565b73ffffffffffffffffffffffffffffffffffffffff1614610c8b576040517f08c379a0000000000000000000000000000000000000000000000000000000008152600401610c82906137fd565b60405180910390fd5b600073ffffffffffffffffffffffffffffffffffffffff16600a60009054906101000a900473ffffffffffffffffffffffffffffffffffffffff1673ffffffffffffffffffffffffffffffffffffffff167f8be0079c531659141344cd1fd0a4f28419497f9722a3daafe3b4186f6b6457e060405160405180910390a36000600a60006101000a81548173ffffffffffffffffffffffffffffffffffffffff021916908373ffffffffffffffffffffffffffffffffffffffff160217905550565b6000610d5782610a77565b9050919050565b6060600e805480602002602001604051908101604052809291908181526020018280548015610de257602002820191906000526020600020905b8160009054906101000a900473ffffffffffffffffffffffffffffffffffffffff1673ffffffffffffffffffffffffffffffffffffffff1681526020019060010190808311610d98575b5050505050905090565b6000600a60009054906101000a900473ffffffffffffffffffffffffffffffffffffffff16905090565b606060078054600181600116156101000203166002900480601f016020809104026020016040519081016040528092919081815260200182805460018160011615610100020316600290048015610eae5780601f10610e8357610100808354040283529160200191610eae565b820191906000526020600020905b815481529060010190602001808311610e9157829003601f168201915b5050505050905090565b610ec06117de565b73ffffffffffffffffffffffffffffffffffffffff168273ffffffffffffffffffffffffffffffffffffffff161415610f2e576040517f08c379a0000000000000000000000000000000000000000000000000000000008152600401610f25906136fd565b60405180910390fd5b8060056000610f3b6117de565b73ffffffffffffffffffffffffffffffffffffffff1673ffffffffffffffffffffffffffffffffffffffff16815260200190815260200160002060008473ffffffffffffffffffffffffffffffffffffffff1673ffffffffffffffffffffffffffffffffffffffff16815260200190815260200160002060006101000a81548160ff0219169083151502179055508173ffffffffffffffffffffffffffffffffffffffff16610fe86117de565b73ffffffffffffffffffffffffffffffffffffffff167f17307eab39ab6107e8899845ad3d59bd9653f200f220920489ca2b5937696c318360405161102d9190613620565b60405180910390a35050565b61104a6110446117de565b836118b4565b611089576040517f08c379a00000000000000000000000000000000000000000000000000000000081526004016110809061387d565b60405180910390fd5b61109584848484611c23565b50505050565b6110a361277d565b600f60008381526020019081526020016000206040518060800160405290816000820154815260200160018201548152602001600282015481526020016003820160009054906101000a900460ff1615151515815250509050919050565b600b5481565b6060611112826117c1565b611151576040517f08c379a00000000000000000000000000000000000000000000000000000000081526004016111489061383d565b60405180910390fd5b6060600860008481526020019081526020016000208054600181600116156101000203166002900480601f0160208091040260200160405190810160405280929190818152602001828054600181600116156101000203166002900480156111fa5780601f106111cf576101008083540402835291602001916111fa565b820191906000526020600020905b8154815290600101906020018083116111dd57829003601f168201915b50505050509050606061120b610aae565b9050600081511415611221578192505050611285565b60008251111561125657808260405160200161123e929190613536565b60405160208183030381529060405292505050611285565b8061126085611c7f565b604051602001611271929190613536565b604051602081830303815290604052925050505b919050565b6000600560008473ffffffffffffffffffffffffffffffffffffffff1673ffffffffffffffffffffffffffffffffffffffff16815260200190815260200160002060008373ffffffffffffffffffffffffffffffffffffffff1673ffffffffffffffffffffffffffffffffffffffff16815260200190815260200160002060009054906101000a900460ff16905092915050565b600d818154811061132b57fe5b906000526020600020016000915090505481565b6060600d80548060200260200160405190810160405280929190818152602001828054801561138d57602002820191906000526020600020905b815481526020019060010190808311611379575b5050505050905090565b61139f6117de565b73ffffffffffffffffffffffffffffffffffffffff166113bd610dec565b73ffffffffffffffffffffffffffffffffffffffff1614611413576040517f08c379a000000000000000000000000000000000000000000000000000000000815260040161140a906137fd565b60405180910390fd5b600073ffffffffffffffffffffffffffffffffffffffff168173ffffffffffffffffffffffffffffffffffffffff161415611483576040517f08c379a000000000000000000000000000000000000000000000000000000000815260040161147a9061369d565b60405180910390fd5b8073ffffffffffffffffffffffffffffffffffffffff16600a60009054906101000a900473ffffffffffffffffffffffffffffffffffffffff1673ffffffffffffffffffffffffffffffffffffffff167f8be0079c531659141344cd1fd0a4f28419497f9722a3daafe3b4186f6b6457e060405160405180910390a380600a60006101000a81548173ffffffffffffffffffffffffffffffffffffffff021916908373ffffffffffffffffffffffffffffffffffffffff16021790555050565b600c5481565b600e818154811061155657fe5b906000526020600020016000915054906101000a900473ffffffffffffffffffffffffffffffffffffffff1681565b60005b81518110156117235760405180608001604052808383815181106115a857fe5b60200260200101516000015181526020018383815181106115c557fe5b60200260200101516020015181526020018383815181106115e257fe5b602002602001015160400151815260200160011515815250600f6000600b54815260200190815260200160002060008201518160000155602082015181600101556040820151816002015560608201518160030160006101000a81548160ff021916908315150217905550905050600d82828151811061165e57fe5b6020026020010151602001519080600181540180825580915050600190039060005260206000200160009091909190915055601060003373ffffffffffffffffffffffffffffffffffffffff1673ffffffffffffffffffffffffffffffffffffffff168152602001908152602001600020600b54908060018154018082558091505060019003906000526020600020016000909190919091505561170433600b54611dc6565b600b600081548092919060010191905055508080600101915050611588565b50600e339080600181540180825580915050600190039060005260206000200160009091909190916101000a81548173ffffffffffffffffffffffffffffffffffffffff021916908373ffffffffffffffffffffffffffffffffffffffff1602179055507fe25990158cef48394eca25688e50df28632515e25370a164815fa8151dc447e2336040516117b69190613575565b60405180910390a150565b60006117d7826002611de490919063ffffffff16565b9050919050565b600033905090565b816004600083815260200190815260200160002060006101000a81548173ffffffffffffffffffffffffffffffffffffffff021916908373ffffffffffffffffffffffffffffffffffffffff160217905550808273ffffffffffffffffffffffffffffffffffffffff1661185983610a77565b73ffffffffffffffffffffffffffffffffffffffff167f8c5be1e5ebec7d5bd14f71427d1e84f3dd0314c0f7b2291e5b200ac8c7c3b92560405160405180910390a45050565b60006118ad82600001611dfe565b9050919050565b60006118bf826117c1565b6118fe576040517f08c379a00000000000000000000000000000000000000000000000000000000081526004016118f59061373d565b60405180910390fd5b600061190983610a77565b90508073ffffffffffffffffffffffffffffffffffffffff168473ffffffffffffffffffffffffffffffffffffffff16148061197857508373ffffffffffffffffffffffffffffffffffffffff1661196084610734565b73ffffffffffffffffffffffffffffffffffffffff16145b806119895750611988818561128a565b5b91505092915050565b8273ffffffffffffffffffffffffffffffffffffffff166119b282610a77565b73ffffffffffffffffffffffffffffffffffffffff1614611a08576040517f08c379a00000000000000000000000000000000000000000000000000000000081526004016119ff9061381d565b60405180910390fd5b600073ffffffffffffffffffffffffffffffffffffffff168273ffffffffffffffffffffffffffffffffffffffff161415611a78576040517f08c379a0000000000000000000000000000000000000000000000000000000008152600401611a6f906136dd565b60405180910390fd5b611a83838383611e0f565b611a8e6000826117e6565b611adf81600160008673ffffffffffffffffffffffffffffffffffffffff1673ffffffffffffffffffffffffffffffffffffffff168152602001908152602001600020611e1490919063ffffffff16565b50611b3181600160008573ffffffffffffffffffffffffffffffffffffffff1673ffffffffffffffffffffffffffffffffffffffff168152602001908152602001600020611e2e90919063ffffffff16565b50611b4881836002611e489092919063ffffffff16565b50808273ffffffffffffffffffffffffffffffffffffffff168473ffffffffffffffffffffffffffffffffffffffff167fddf252ad1be2c89b69c2b068fc378daa952ba7f163c4a11628f55a4df523b3ef60405160405180910390a4505050565b6000611bb88360000183611e7d565b60001c905092915050565b600080600080611bd68660000186611eea565b915091508160001c8160001c9350935050509250929050565b6000611c02846000018460001b84611f6d565b60001c90509392505050565b6000611c1c82600001611ffe565b9050919050565b611c2e848484611992565b611c3a8484848461200f565b611c79576040517f08c379a0000000000000000000000000000000000000000000000000000000008152600401611c709061367d565b60405180910390fd5b50505050565b60606000821415611cc7576040518060400160405280600181526020017f30000000000000000000000000000000000000000000000000000000000000008152509050611dc1565b600082905060005b60008214611cf1578080600101915050600a8281611ce957fe5b049150611ccf565b60608167ffffffffffffffff81118015611d0a57600080fd5b506040519080825280601f01601f191660200182016040528015611d3d5781602001600182028036833780820191505090505b50905060006001830390508593505b60008414611db957600a8481611d5e57fe5b0660300160f81b82828060019003935081518110611d7857fe5b60200101907effffffffffffffffffffffffffffffffffffffffffffffffffffffffffffff1916908160001a905350600a8481611db157fe5b049350611d4c565b819450505050505b919050565b611de0828260405180602001604052806000815250612173565b5050565b6000611df6836000018360001b6121ce565b905092915050565b600081600001805490509050919050565b505050565b6000611e26836000018360001b6121f1565b905092915050565b6000611e40836000018360001b6122d9565b905092915050565b6000611e74846000018460001b8473ffffffffffffffffffffffffffffffffffffffff1660001b612349565b90509392505050565b600081836000018054905011611ec8576040517f08c379a0000000000000000000000000000000000000000000000000000000008152600401611ebf9061365d565b60405180910390fd5b826000018281548110611ed757fe5b9060005260206000200154905092915050565b60008082846000018054905011611f36576040517f08c379a0000000000000000000000000000000000000000000000000000000008152600401611f2d9061379d565b60405180910390fd5b6000846000018481548110611f4757fe5b906000526020600020906002020190508060000154816001015492509250509250929050565b60008084600101600085815260200190815260200160002054905060008114158390611fcf576040517f08c379a0000000000000000000000000000000000000000000000000000000008152600401611fc6919061363b565b60405180910390fd5b50846000016001820381548110611fe257fe5b9060005260206000209060020201600101549150509392505050565b600081600001805490509050919050565b60006120308473ffffffffffffffffffffffffffffffffffffffff16612425565b61203d576001905061216b565b606061210463150b7a0260e01b6120526117de565b8887876040516024016120689493929190613590565b604051602081830303815290604052907bffffffffffffffffffffffffffffffffffffffffffffffffffffffff19166020820180517bffffffffffffffffffffffffffffffffffffffffffffffffffffffff8381831617835250505050604051806060016040528060328152602001613ba0603291398773ffffffffffffffffffffffffffffffffffffffff166124389092919063ffffffff16565b905060008180602001905181019061211c9190612b6c565b905063150b7a0260e01b7bffffffffffffffffffffffffffffffffffffffffffffffffffffffff1916817bffffffffffffffffffffffffffffffffffffffffffffffffffffffff191614925050505b949350505050565b61217d8383612450565b61218a600084848461200f565b6121c9576040517f08c379a00000000000000000000000000000000000000000000000000000000081526004016121c09061367d565b60405180910390fd5b505050565b600080836001016000848152602001908152602001600020541415905092915050565b600080836001016000848152602001908152602001600020549050600081146122cd576000600182039050600060018660000180549050039050600086600001828154811061223c57fe5b906000526020600020015490508087600001848154811061225957fe5b906000526020600020018190555060018301876001016000838152602001908152602001600020819055508660000180548061229157fe5b600190038181906000526020600020016000905590558660010160008781526020019081526020016000206000905560019450505050506122d3565b60009150505b92915050565b60006122e583836125de565b61233e578260000182908060018154018082558091505060019003906000526020600020016000909190919091505582600001805490508360010160008481526020019081526020016000208190555060019050612343565b600090505b92915050565b60008084600101600085815260200190815260200160002054905060008114156123f05784600001604051806040016040528086815260200185815250908060018154018082558091505060019003906000526020600020906002020160009091909190915060008201518160000155602082015181600101555050846000018054905085600101600086815260200190815260200160002081905550600191505061241e565b8285600001600183038154811061240357fe5b90600052602060002090600202016001018190555060009150505b9392505050565b600080823b905060008111915050919050565b60606124478484600085612601565b90509392505050565b600073ffffffffffffffffffffffffffffffffffffffff168273ffffffffffffffffffffffffffffffffffffffff1614156124c0576040517f08c379a00000000000000000000000000000000000000000000000000000000081526004016124b7906137bd565b60405180910390fd5b6124c9816117c1565b15612509576040517f08c379a0000000000000000000000000000000000000000000000000000000008152600401612500906136bd565b60405180910390fd5b61251560008383611e0f565b61256681600160008573ffffffffffffffffffffffffffffffffffffffff1673ffffffffffffffffffffffffffffffffffffffff168152602001908152602001600020611e2e90919063ffffffff16565b5061257d81836002611e489092919063ffffffff16565b50808273ffffffffffffffffffffffffffffffffffffffff16600073ffffffffffffffffffffffffffffffffffffffff167fddf252ad1be2c89b69c2b068fc378daa952ba7f163c4a11628f55a4df523b3ef60405160405180910390a45050565b600080836001016000848152602001908152602001600020541415905092915050565b606082471015612646576040517f08c379a000000000000000000000000000000000000000000000000000000000815260040161263d9061371d565b60405180910390fd5b61264f85612425565b61268e576040517f08c379a00000000000000000000000000000000000000000000000000000000081526004016126859061389d565b60405180910390fd5b600060608673ffffffffffffffffffffffffffffffffffffffff1685876040516126b8919061351f565b60006040518083038185875af1925050503d80600081146126f5576040519150601f19603f3d011682016040523d82523d6000602084013e6126fa565b606091505b509150915061270a828286612716565b92505050949350505050565b6060831561272657829050612776565b6000835111156127395782518084602001fd5b816040517f08c379a000000000000000000000000000000000000000000000000000000000815260040161276d919061363b565b60405180910390fd5b9392505050565b60405180608001604052806000815260200160008152602001600081526020016000151581525090565b6000813590506127b681613b43565b92915050565b600082601f8301126127cd57600080fd5b81356127e06127db82613920565b6138f3565b9150818183526020840193506020810190508385608084028201111561280557600080fd5b60005b83811015612835578161281b88826128d2565b845260208401935060808301925050600181019050612808565b5050505092915050565b60008135905061284e81613b5a565b92915050565b60008135905061286381613b71565b92915050565b60008151905061287881613b71565b92915050565b600082601f83011261288f57600080fd5b81356128a261289d82613948565b6138f3565b915080825260208301602083018583830111156128be57600080fd5b6128c9838284613af0565b50505092915050565b6000608082840312156128e457600080fd5b6128ee60806138f3565b905060006128fe84828501612946565b600083015250602061291284828501612946565b602083015250604061292684828501612946565b604083015250606061293a8482850161283f565b60608301525092915050565b60008135905061295581613b88565b92915050565b60006020828403121561296d57600080fd5b600061297b848285016127a7565b91505092915050565b6000806040838503121561299757600080fd5b60006129a5858286016127a7565b92505060206129b6858286016127a7565b9150509250929050565b6000806000606084860312156129d557600080fd5b60006129e3868287016127a7565b93505060206129f4868287016127a7565b9250506040612a0586828701612946565b9150509250925092565b60008060008060808587031215612a2557600080fd5b6000612a33878288016127a7565b9450506020612a44878288016127a7565b9350506040612a5587828801612946565b925050606085013567ffffffffffffffff811115612a7257600080fd5b612a7e8782880161287e565b91505092959194509250565b60008060408385031215612a9d57600080fd5b6000612aab858286016127a7565b9250506020612abc8582860161283f565b9150509250929050565b60008060408385031215612ad957600080fd5b6000612ae7858286016127a7565b9250506020612af885828601612946565b9150509250929050565b600060208284031215612b1457600080fd5b600082013567ffffffffffffffff811115612b2e57600080fd5b612b3a848285016127bc565b91505092915050565b600060208284031215612b5557600080fd5b6000612b6384828501612854565b91505092915050565b600060208284031215612b7e57600080fd5b6000612b8c84828501612869565b91505092915050565b600060208284031215612ba757600080fd5b6000612bb584828501612946565b91505092915050565b6000612bca8383612c0c565b60208301905092915050565b6000612be28383613501565b60208301905092915050565b612bf781613aba565b82525050565b612c0681613a46565b82525050565b612c1581613a34565b82525050565b612c2481613a34565b82525050565b6000612c3582613994565b612c3f81856139da565b9350612c4a83613974565b8060005b83811015612c7b578151612c628882612bbe565b9750612c6d836139c0565b925050600181019050612c4e565b5085935050505092915050565b6000612c938261399f565b612c9d81856139eb565b9350612ca883613984565b8060005b83811015612cd9578151612cc08882612bd6565b9750612ccb836139cd565b925050600181019050612cac565b5085935050505092915050565b612cef81613a58565b82525050565b612cfe81613a58565b82525050565b6000612d0f826139aa565b612d1981856139fc565b9350612d29818560208601613aff565b612d3281613b32565b840191505092915050565b6000612d48826139aa565b612d528185613a0d565b9350612d62818560208601613aff565b80840191505092915050565b6000612d79826139b5565b612d838185613a18565b9350612d93818560208601613aff565b612d9c81613b32565b840191505092915050565b6000612db2826139b5565b612dbc8185613a29565b9350612dcc818560208601613aff565b80840191505092915050565b6000612de5602283613a18565b91507f456e756d657261626c655365743a20696e646578206f7574206f6620626f756e60008301527f64730000000000000000000000000000000000000000000000000000000000006020830152604082019050919050565b6000612e4b603283613a18565b91507f4552433732313a207472616e7366657220746f206e6f6e20455243373231526560008301527f63656976657220696d706c656d656e74657200000000000000000000000000006020830152604082019050919050565b6000612eb1602683613a18565b91507f4f776e61626c653a206e6577206f776e657220697320746865207a65726f206160008301527f64647265737300000000000000000000000000000000000000000000000000006020830152604082019050919050565b6000612f17601c83613a18565b91507f4552433732313a20746f6b656e20616c7265616479206d696e746564000000006000830152602082019050919050565b6000612f57602483613a18565b91507f4552433732313a207472616e7366657220746f20746865207a65726f2061646460008301527f72657373000000000000000000000000000000000000000000000000000000006020830152604082019050919050565b6000612fbd601983613a18565b91507f4552433732313a20617070726f766520746f2063616c6c6572000000000000006000830152602082019050919050565b6000612ffd602683613a18565b91507f416464726573733a20696e73756666696369656e742062616c616e636520666f60008301527f722063616c6c00000000000000000000000000000000000000000000000000006020830152604082019050919050565b6000613063602c83613a18565b91507f4552433732313a206f70657261746f7220717565727920666f72206e6f6e657860008301527f697374656e7420746f6b656e00000000000000000000000000000000000000006020830152604082019050919050565b60006130c9603883613a18565b91507f4552433732313a20617070726f76652063616c6c6572206973206e6f74206f7760008301527f6e6572206e6f7220617070726f76656420666f7220616c6c00000000000000006020830152604082019050919050565b600061312f602a83613a18565b91507f4552433732313a2062616c616e636520717565727920666f7220746865207a6560008301527f726f2061646472657373000000000000000000000000000000000000000000006020830152604082019050919050565b6000613195602283613a18565b91507f456e756d657261626c654d61703a20696e646578206f7574206f6620626f756e60008301527f64730000000000000000000000000000000000000000000000000000000000006020830152604082019050919050565b60006131fb602083613a18565b91507f4552433732313a206d696e7420746f20746865207a65726f20616464726573736000830152602082019050919050565b600061323b602c83613a18565b91507f4552433732313a20617070726f76656420717565727920666f72206e6f6e657860008301527f697374656e7420746f6b656e00000000000000000000000000000000000000006020830152604082019050919050565b60006132a1602083613a18565b91507f4f776e61626c653a2063616c6c6572206973206e6f7420746865206f776e65726000830152602082019050919050565b60006132e1602983613a18565b91507f4552433732313a207472616e73666572206f6620746f6b656e2074686174206960008301527f73206e6f74206f776e00000000000000000000000000000000000000000000006020830152604082019050919050565b6000613347602f83613a18565b91507f4552433732314d657461646174613a2055524920717565727920666f72206e6f60008301527f6e6578697374656e7420746f6b656e00000000000000000000000000000000006020830152604082019050919050565b60006133ad602183613a18565b91507f4552433732313a20617070726f76616c20746f2063757272656e74206f776e6560008301527f72000000000000000000000000000000000000000000000000000000000000006020830152604082019050919050565b6000613413603183613a18565b91507f4552433732313a207472616e736665722063616c6c6572206973206e6f74206f60008301527f776e6572206e6f7220617070726f7665640000000000000000000000000000006020830152604082019050919050565b6000613479601d83613a18565b91507f416464726573733a2063616c6c20746f206e6f6e2d636f6e74726163740000006000830152602082019050919050565b6080820160008201516134c26000850182613501565b5060208201516134d56020850182613501565b5060408201516134e86040850182613501565b5060608201516134fb6060850182612ce6565b50505050565b61350a81613ab0565b82525050565b61351981613ab0565b82525050565b600061352b8284612d3d565b915081905092915050565b60006135428285612da7565b915061354e8284612da7565b91508190509392505050565b600060208201905061356f6000830184612c1b565b92915050565b600060208201905061358a6000830184612bee565b92915050565b60006080820190506135a56000830187612bfd565b6135b26020830186612c1b565b6135bf6040830185613510565b81810360608301526135d18184612d04565b905095945050505050565b600060208201905081810360008301526135f68184612c2a565b905092915050565b600060208201905081810360008301526136188184612c88565b905092915050565b60006020820190506136356000830184612cf5565b92915050565b600060208201905081810360008301526136558184612d6e565b905092915050565b6000602082019050818103600083015261367681612dd8565b9050919050565b6000602082019050818103600083015261369681612e3e565b9050919050565b600060208201905081810360008301526136b681612ea4565b9050919050565b600060208201905081810360008301526136d681612f0a565b9050919050565b600060208201905081810360008301526136f681612f4a565b9050919050565b6000602082019050818103600083015261371681612fb0565b9050919050565b6000602082019050818103600083015261373681612ff0565b9050919050565b6000602082019050818103600083015261375681613056565b9050919050565b60006020820190508181036000830152613776816130bc565b9050919050565b6000602082019050818103600083015261379681613122565b9050919050565b600060208201905081810360008301526137b681613188565b9050919050565b600060208201905081810360008301526137d6816131ee565b9050919050565b600060208201905081810360008301526137f68161322e565b9050919050565b6000602082019050818103600083015261381681613294565b9050919050565b60006020820190508181036000830152613836816132d4565b9050919050565b600060208201905081810360008301526138568161333a565b9050919050565b60006020820190508181036000830152613876816133a0565b9050919050565b6000602082019050818103600083015261389681613406565b9050919050565b600060208201905081810360008301526138b68161346c565b9050919050565b60006080820190506138d260008301846134ac565b92915050565b60006020820190506138ed6000830184613510565b92915050565b6000604051905081810181811067ffffffffffffffff8211171561391657600080fd5b8060405250919050565b600067ffffffffffffffff82111561393757600080fd5b602082029050602081019050919050565b600067ffffffffffffffff82111561395f57600080fd5b601f19601f8301169050602081019050919050565b6000819050602082019050919050565b6000819050602082019050919050565b600081519050919050565b600081519050919050565b600081519050919050565b600081519050919050565b6000602082019050919050565b6000602082019050919050565b600082825260208201905092915050565b600082825260208201905092915050565b600082825260208201905092915050565b600081905092915050565b600082825260208201905092915050565b600081905092915050565b6000613a3f82613a90565b9050919050565b6000613a5182613a90565b9050919050565b60008115159050919050565b60007fffffffff0000000000000000000000000000000000000000000000000000000082169050919050565b600073ffffffffffffffffffffffffffffffffffffffff82169050919050565b6000819050919050565b6000613ac582613acc565b9050919050565b6000613ad782613ade565b9050919050565b6000613ae982613a90565b9050919050565b82818337600083830152505050565b60005b83811015613b1d578082015181840152602081019050613b02565b83811115613b2c576000848401525b50505050565b6000601f19601f8301169050919050565b613b4c81613a34565b8114613b5757600080fd5b50565b613b6381613a58565b8114613b6e57600080fd5b50565b613b7a81613a64565b8114613b8557600080fd5b50565b613b9181613ab0565b8114613b9c57600080fd5b5056fe4552433732313a207472616e7366657220746f206e6f6e20455243373231526563656976657220696d706c656d656e7465724552433732313a206f776e657220717565727920666f72206e6f6e6578697374656e7420746f6b656ea2646970667358221220aedcb4d1a5d55325a41d9b5e21796c81bb735799e970551d877ffa9f71b1c98d64736f6c634300060c0033",
  "immutableReferences": {},
  "source": "pragma solidity >=0.4.22 <0.8.0;\r\npragma experimental ABIEncoderV2;\r\n\r\nimport \"@openzeppelin/contracts/token/ERC721/ERC721.sol\";\r\nimport \"@openzeppelin/contracts/access/Ownable.sol\";\r\n\r\ncontract CardGame is ERC721, Ownable {\r\n\tconstructor() ERC721(\"CasinoNFT\", \"MOO\") public {\r\n\t}\r\n\r\n\tstruct Card {\r\n\t\tuint deckIdx;\r\n\t\tuint cardIdx;\r\n\t\tuint suitTypeIdx;\r\n\t\tbool isHandCard;\r\n\t}\r\n\r\n\tuint public nftId = 0;\r\n\tuint public currentDeckIdx = 0;\r\n\tuint[] public currentDeckTaken;\r\n\taddress[] public players;\r\n\r\n\tmapping(uint256 => Card) private _cardStack;\r\n\tmapping(address => uint[]) private _inHandTokens;\r\n\r\n\tevent HandMinted(address player);\r\n\r\n\tfunction getTokenDetails(uint256 tokenId) public view returns (Card memory) {\r\n\t\treturn _cardStack[tokenId];\r\n\t}\r\n\r\n\tfunction getDeckTaken() public view returns (uint[] memory) {\r\n\t\treturn currentDeckTaken;\r\n\t}\r\n\t\r\n\tfunction getPlayers() public view returns(address [] memory) {\r\n\t\treturn players;\r\n\t}\r\n\r\n\tfunction getOwnerOf(uint256 tokenId) public view returns (address){\r\n\t\treturn ownerOf(tokenId);\r\n\t}\r\n\r\n\tfunction getInHandTokens(address myAddr) public view returns(uint [] memory) {\r\n\t\treturn _inHandTokens[myAddr];\r\n\t}\r\n\r\n\tfunction mintNewHand(Card[] memory card_hand) public {\r\n\t\tfor (uint i = 0; i < card_hand.length; i++) {\r\n\t\t\t// uint deckIdx = card_hand[i].deckIdx;\r\n\t\t\t_cardStack[nftId] = Card(card_hand[i].deckIdx, card_hand[i].cardIdx, card_hand[i].suitTypeIdx, true);\r\n\t\t\tcurrentDeckTaken.push(card_hand[i].cardIdx);\r\n\t\t\t_inHandTokens[msg.sender].push(nftId);\r\n\t\t\t_safeMint(msg.sender, nftId);\r\n\t\t\tnftId++;\r\n\t\t}\r\n\t\tplayers.push(msg.sender);\r\n\t\temit HandMinted(msg.sender);\r\n\t}\r\n}",
  "sourcePath": "C:/Users/swapp/Documents/MyProjects/Crypto/crypto_casino/truffle/contracts/CardGame.sol",
  "compiler": {
    "name": "solc",
    "version": "0.6.12+commit.27d51765.Emscripten.clang"
  },
  "schemaVersion": "3.4.1",
  "updatedAt": "2021-07-29T06:19:13.286Z",
  "networkType": "ethereum",
  "devdoc": {
    "kind": "dev",
    "methods": {
      "approve(address,uint256)": {
        "details": "See {IERC721-approve}."
      },
      "balanceOf(address)": {
        "details": "See {IERC721-balanceOf}."
      },
      "baseURI()": {
        "details": "Returns the base URI set via {_setBaseURI}. This will be automatically added as a prefix in {tokenURI} to each token's URI, or to the token ID if no specific URI is set for that token ID."
      },
      "getApproved(uint256)": {
        "details": "See {IERC721-getApproved}."
      },
      "isApprovedForAll(address,address)": {
        "details": "See {IERC721-isApprovedForAll}."
      },
      "name()": {
        "details": "See {IERC721Metadata-name}."
      },
      "owner()": {
        "details": "Returns the address of the current owner."
      },
      "ownerOf(uint256)": {
        "details": "See {IERC721-ownerOf}."
      },
      "renounceOwnership()": {
        "details": "Leaves the contract without owner. It will not be possible to call `onlyOwner` functions anymore. Can only be called by the current owner. NOTE: Renouncing ownership will leave the contract without an owner, thereby removing any functionality that is only available to the owner."
      },
      "safeTransferFrom(address,address,uint256)": {
        "details": "See {IERC721-safeTransferFrom}."
      },
      "safeTransferFrom(address,address,uint256,bytes)": {
        "details": "See {IERC721-safeTransferFrom}."
      },
      "setApprovalForAll(address,bool)": {
        "details": "See {IERC721-setApprovalForAll}."
      },
      "supportsInterface(bytes4)": {
        "details": "See {IERC165-supportsInterface}. Time complexity O(1), guaranteed to always use less than 30 000 gas."
      },
      "symbol()": {
        "details": "See {IERC721Metadata-symbol}."
      },
      "tokenByIndex(uint256)": {
        "details": "See {IERC721Enumerable-tokenByIndex}."
      },
      "tokenOfOwnerByIndex(address,uint256)": {
        "details": "See {IERC721Enumerable-tokenOfOwnerByIndex}."
      },
      "tokenURI(uint256)": {
        "details": "See {IERC721Metadata-tokenURI}."
      },
      "totalSupply()": {
        "details": "See {IERC721Enumerable-totalSupply}."
      },
      "transferFrom(address,address,uint256)": {
        "details": "See {IERC721-transferFrom}."
      },
      "transferOwnership(address)": {
        "details": "Transfers ownership of the contract to a new account (`newOwner`). Can only be called by the current owner."
      }
    },
    "version": 1
  },
  "userdoc": {
    "kind": "user",
    "methods": {},
    "version": 1
  }
}