{
  "contractName": "CardGame",
  "abi": [
    {
      "inputs": [],
      "stateMutability": "nonpayable",
      "type": "constructor"
    },
    {
      "anonymous": false,
      "inputs": [
        {
          "indexed": true,
          "internalType": "address",
          "name": "owner",
          "type": "address"
        },
        {
          "indexed": true,
          "internalType": "address",
          "name": "approved",
          "type": "address"
        },
        {
          "indexed": true,
          "internalType": "uint256",
          "name": "tokenId",
          "type": "uint256"
        }
      ],
      "name": "Approval",
      "type": "event"
    },
    {
      "anonymous": false,
      "inputs": [
        {
          "indexed": true,
          "internalType": "address",
          "name": "owner",
          "type": "address"
        },
        {
          "indexed": true,
          "internalType": "address",
          "name": "operator",
          "type": "address"
        },
        {
          "indexed": false,
          "internalType": "bool",
          "name": "approved",
          "type": "bool"
        }
      ],
      "name": "ApprovalForAll",
      "type": "event"
    },
    {
      "anonymous": false,
      "inputs": [
        {
          "indexed": false,
          "internalType": "address",
          "name": "player",
          "type": "address"
        }
      ],
      "name": "GameWonEvent",
      "type": "event"
    },
    {
      "anonymous": false,
      "inputs": [
        {
          "indexed": false,
          "internalType": "address",
          "name": "player",
          "type": "address"
        }
      ],
      "name": "HandMinted",
      "type": "event"
    },
    {
      "anonymous": false,
      "inputs": [
        {
          "indexed": true,
          "internalType": "address",
          "name": "previousOwner",
          "type": "address"
        },
        {
          "indexed": true,
          "internalType": "address",
          "name": "newOwner",
          "type": "address"
        }
      ],
      "name": "OwnershipTransferred",
      "type": "event"
    },
    {
      "anonymous": false,
      "inputs": [
        {
          "indexed": true,
          "internalType": "address",
          "name": "from",
          "type": "address"
        },
        {
          "indexed": true,
          "internalType": "address",
          "name": "to",
          "type": "address"
        },
        {
          "indexed": true,
          "internalType": "uint256",
          "name": "tokenId",
          "type": "uint256"
        }
      ],
      "name": "Transfer",
      "type": "event"
    },
    {
      "inputs": [
        {
          "internalType": "address",
          "name": "to",
          "type": "address"
        },
        {
          "internalType": "uint256",
          "name": "tokenId",
          "type": "uint256"
        }
      ],
      "name": "approve",
      "outputs": [],
      "stateMutability": "nonpayable",
      "type": "function"
    },
    {
      "inputs": [
        {
          "internalType": "address",
          "name": "owner",
          "type": "address"
        }
      ],
      "name": "balanceOf",
      "outputs": [
        {
          "internalType": "uint256",
          "name": "",
          "type": "uint256"
        }
      ],
      "stateMutability": "view",
      "type": "function",
      "constant": true
    },
    {
      "inputs": [],
      "name": "baseURI",
      "outputs": [
        {
          "internalType": "string",
          "name": "",
          "type": "string"
        }
      ],
      "stateMutability": "view",
      "type": "function",
      "constant": true
    },
    {
      "inputs": [],
      "name": "currentDeckIdx",
      "outputs": [
        {
          "internalType": "uint256",
          "name": "",
          "type": "uint256"
        }
      ],
      "stateMutability": "view",
      "type": "function",
      "constant": true
    },
    {
      "inputs": [
        {
          "internalType": "uint256",
          "name": "",
          "type": "uint256"
        }
      ],
      "name": "currentDeckTaken",
      "outputs": [
        {
          "internalType": "uint256",
          "name": "",
          "type": "uint256"
        }
      ],
      "stateMutability": "view",
      "type": "function",
      "constant": true
    },
    {
      "inputs": [
        {
          "internalType": "uint256",
          "name": "tokenId",
          "type": "uint256"
        }
      ],
      "name": "getApproved",
      "outputs": [
        {
          "internalType": "address",
          "name": "",
          "type": "address"
        }
      ],
      "stateMutability": "view",
      "type": "function",
      "constant": true
    },
    {
      "inputs": [
        {
          "internalType": "address",
          "name": "owner",
          "type": "address"
        },
        {
          "internalType": "address",
          "name": "operator",
          "type": "address"
        }
      ],
      "name": "isApprovedForAll",
      "outputs": [
        {
          "internalType": "bool",
          "name": "",
          "type": "bool"
        }
      ],
      "stateMutability": "view",
      "type": "function",
      "constant": true
    },
    {
      "inputs": [],
      "name": "name",
      "outputs": [
        {
          "internalType": "string",
          "name": "",
          "type": "string"
        }
      ],
      "stateMutability": "view",
      "type": "function",
      "constant": true
    },
    {
      "inputs": [],
      "name": "nftId",
      "outputs": [
        {
          "internalType": "uint256",
          "name": "",
          "type": "uint256"
        }
      ],
      "stateMutability": "view",
      "type": "function",
      "constant": true
    },
    {
      "inputs": [],
      "name": "owner",
      "outputs": [
        {
          "internalType": "address",
          "name": "",
          "type": "address"
        }
      ],
      "stateMutability": "view",
      "type": "function",
      "constant": true
    },
    {
      "inputs": [
        {
          "internalType": "uint256",
          "name": "tokenId",
          "type": "uint256"
        }
      ],
      "name": "ownerOf",
      "outputs": [
        {
          "internalType": "address",
          "name": "",
          "type": "address"
        }
      ],
      "stateMutability": "view",
      "type": "function",
      "constant": true
    },
    {
      "inputs": [
        {
          "internalType": "uint256",
          "name": "",
          "type": "uint256"
        }
      ],
      "name": "players",
      "outputs": [
        {
          "internalType": "address",
          "name": "",
          "type": "address"
        }
      ],
      "stateMutability": "view",
      "type": "function",
      "constant": true
    },
    {
      "inputs": [],
      "name": "renounceOwnership",
      "outputs": [],
      "stateMutability": "nonpayable",
      "type": "function"
    },
    {
      "inputs": [
        {
          "internalType": "address",
          "name": "from",
          "type": "address"
        },
        {
          "internalType": "address",
          "name": "to",
          "type": "address"
        },
        {
          "internalType": "uint256",
          "name": "tokenId",
          "type": "uint256"
        }
      ],
      "name": "safeTransferFrom",
      "outputs": [],
      "stateMutability": "nonpayable",
      "type": "function"
    },
    {
      "inputs": [
        {
          "internalType": "address",
          "name": "from",
          "type": "address"
        },
        {
          "internalType": "address",
          "name": "to",
          "type": "address"
        },
        {
          "internalType": "uint256",
          "name": "tokenId",
          "type": "uint256"
        },
        {
          "internalType": "bytes",
          "name": "_data",
          "type": "bytes"
        }
      ],
      "name": "safeTransferFrom",
      "outputs": [],
      "stateMutability": "nonpayable",
      "type": "function"
    },
    {
      "inputs": [
        {
          "internalType": "address",
          "name": "operator",
          "type": "address"
        },
        {
          "internalType": "bool",
          "name": "approved",
          "type": "bool"
        }
      ],
      "name": "setApprovalForAll",
      "outputs": [],
      "stateMutability": "nonpayable",
      "type": "function"
    },
    {
      "inputs": [
        {
          "internalType": "bytes4",
          "name": "interfaceId",
          "type": "bytes4"
        }
      ],
      "name": "supportsInterface",
      "outputs": [
        {
          "internalType": "bool",
          "name": "",
          "type": "bool"
        }
      ],
      "stateMutability": "view",
      "type": "function",
      "constant": true
    },
    {
      "inputs": [],
      "name": "symbol",
      "outputs": [
        {
          "internalType": "string",
          "name": "",
          "type": "string"
        }
      ],
      "stateMutability": "view",
      "type": "function",
      "constant": true
    },
    {
      "inputs": [
        {
          "internalType": "uint256",
          "name": "index",
          "type": "uint256"
        }
      ],
      "name": "tokenByIndex",
      "outputs": [
        {
          "internalType": "uint256",
          "name": "",
          "type": "uint256"
        }
      ],
      "stateMutability": "view",
      "type": "function",
      "constant": true
    },
    {
      "inputs": [
        {
          "internalType": "address",
          "name": "owner",
          "type": "address"
        },
        {
          "internalType": "uint256",
          "name": "index",
          "type": "uint256"
        }
      ],
      "name": "tokenOfOwnerByIndex",
      "outputs": [
        {
          "internalType": "uint256",
          "name": "",
          "type": "uint256"
        }
      ],
      "stateMutability": "view",
      "type": "function",
      "constant": true
    },
    {
      "inputs": [
        {
          "internalType": "uint256",
          "name": "tokenId",
          "type": "uint256"
        }
      ],
      "name": "tokenURI",
      "outputs": [
        {
          "internalType": "string",
          "name": "",
          "type": "string"
        }
      ],
      "stateMutability": "view",
      "type": "function",
      "constant": true
    },
    {
      "inputs": [],
      "name": "totalSupply",
      "outputs": [
        {
          "internalType": "uint256",
          "name": "",
          "type": "uint256"
        }
      ],
      "stateMutability": "view",
      "type": "function",
      "constant": true
    },
    {
      "inputs": [
        {
          "internalType": "address",
          "name": "from",
          "type": "address"
        },
        {
          "internalType": "address",
          "name": "to",
          "type": "address"
        },
        {
          "internalType": "uint256",
          "name": "tokenId",
          "type": "uint256"
        }
      ],
      "name": "transferFrom",
      "outputs": [],
      "stateMutability": "nonpayable",
      "type": "function"
    },
    {
      "inputs": [
        {
          "internalType": "address",
          "name": "newOwner",
          "type": "address"
        }
      ],
      "name": "transferOwnership",
      "outputs": [],
      "stateMutability": "nonpayable",
      "type": "function"
    },
    {
      "inputs": [
        {
          "internalType": "uint256",
          "name": "tokenId",
          "type": "uint256"
        }
      ],
      "name": "getTokenDetails",
      "outputs": [
        {
          "components": [
            {
              "internalType": "uint256",
              "name": "nftId",
              "type": "uint256"
            },
            {
              "internalType": "uint256",
              "name": "deckIdx",
              "type": "uint256"
            },
            {
              "internalType": "uint256",
              "name": "cardIdx",
              "type": "uint256"
            },
            {
              "internalType": "uint256",
              "name": "suitTypeIdx",
              "type": "uint256"
            },
            {
              "internalType": "bool",
              "name": "isHandCard",
              "type": "bool"
            }
          ],
          "internalType": "struct CardGame.Card",
          "name": "",
          "type": "tuple"
        }
      ],
      "stateMutability": "view",
      "type": "function",
      "constant": true
    },
    {
      "inputs": [],
      "name": "getDeckTaken",
      "outputs": [
        {
          "internalType": "uint256[]",
          "name": "",
          "type": "uint256[]"
        }
      ],
      "stateMutability": "view",
      "type": "function",
      "constant": true
    },
    {
      "inputs": [],
      "name": "getPlayers",
      "outputs": [
        {
          "internalType": "address[]",
          "name": "",
          "type": "address[]"
        }
      ],
      "stateMutability": "view",
      "type": "function",
      "constant": true
    },
    {
      "inputs": [
        {
          "internalType": "uint256",
          "name": "tokenId",
          "type": "uint256"
        }
      ],
      "name": "getOwnerOf",
      "outputs": [
        {
          "internalType": "address",
          "name": "",
          "type": "address"
        }
      ],
      "stateMutability": "view",
      "type": "function",
      "constant": true
    },
    {
      "inputs": [
        {
          "internalType": "address",
          "name": "myAddr",
          "type": "address"
        }
      ],
      "name": "getInHandTokens",
      "outputs": [
        {
          "internalType": "uint256[]",
          "name": "",
          "type": "uint256[]"
        }
      ],
      "stateMutability": "view",
      "type": "function",
      "constant": true
    },
    {
      "inputs": [],
      "name": "getInHandTokens2",
      "outputs": [
        {
          "internalType": "uint256[]",
          "name": "",
          "type": "uint256[]"
        }
      ],
      "stateMutability": "view",
      "type": "function",
      "constant": true
    },
    {
      "inputs": [
        {
          "internalType": "address",
          "name": "myAddr",
          "type": "address"
        }
      ],
      "name": "getPairedTokens",
      "outputs": [
        {
          "internalType": "uint256[]",
          "name": "",
          "type": "uint256[]"
        }
      ],
      "stateMutability": "view",
      "type": "function",
      "constant": true
    },
    {
      "inputs": [
        {
          "internalType": "address",
          "name": "myAddr",
          "type": "address"
        }
      ],
      "name": "getGamesWon",
      "outputs": [
        {
          "internalType": "uint256",
          "name": "",
          "type": "uint256"
        }
      ],
      "stateMutability": "view",
      "type": "function",
      "constant": true
    },
    {
      "inputs": [
        {
          "components": [
            {
              "internalType": "uint256",
              "name": "nftId",
              "type": "uint256"
            },
            {
              "internalType": "uint256",
              "name": "deckIdx",
              "type": "uint256"
            },
            {
              "internalType": "uint256",
              "name": "cardIdx",
              "type": "uint256"
            },
            {
              "internalType": "uint256",
              "name": "suitTypeIdx",
              "type": "uint256"
            },
            {
              "internalType": "bool",
              "name": "isHandCard",
              "type": "bool"
            }
          ],
          "internalType": "struct CardGame.Card[]",
          "name": "card_hand",
          "type": "tuple[]"
        }
      ],
      "name": "mintNewHand",
      "outputs": [],
      "stateMutability": "nonpayable",
      "type": "function"
    },
    {
      "inputs": [
        {
          "internalType": "uint256",
          "name": "_tokenId",
          "type": "uint256"
        }
      ],
      "name": "transferCard",
      "outputs": [],
      "stateMutability": "nonpayable",
      "type": "function"
    },
    {
      "inputs": [
        {
          "components": [
            {
              "internalType": "uint256",
              "name": "nftId",
              "type": "uint256"
            },
            {
              "internalType": "uint256",
              "name": "deckIdx",
              "type": "uint256"
            },
            {
              "internalType": "uint256",
              "name": "cardIdx",
              "type": "uint256"
            },
            {
              "internalType": "uint256",
              "name": "suitTypeIdx",
              "type": "uint256"
            },
            {
              "internalType": "bool",
              "name": "isHandCard",
              "type": "bool"
            }
          ],
          "internalType": "struct CardGame.Card[]",
          "name": "card_hand",
          "type": "tuple[]"
        }
      ],
      "name": "updateHand_old",
      "outputs": [],
      "stateMutability": "nonpayable",
      "type": "function"
    },
    {
      "inputs": [
        {
          "internalType": "uint256[]",
          "name": "idx_pair",
          "type": "uint256[]"
        }
      ],
      "name": "updateHand",
      "outputs": [],
      "stateMutability": "nonpayable",
      "type": "function"
    }
  ],
  "bytecode": "0x60806040526000600b556000600c553480156200001b57600080fd5b506040518060400160405280600981526020017f436173696e6f4e465400000000000000000000000000000000000000000000008152506040518060400160405280600381526020017f4d4f4f0000000000000000000000000000000000000000000000000000000000815250620000a06301ffc9a760e01b620001d360201b60201c565b8160069080519060200190620000b8929190620002b3565b508060079080519060200190620000d1929190620002b3565b50620000ea6380ac58cd60e01b620001d360201b60201c565b62000102635b5e139f60e01b620001d360201b60201c565b6200011a63780e9d6360e01b620001d360201b60201c565b505060006200012e620002ab60201b60201c565b905080600a60006101000a81548173ffffffffffffffffffffffffffffffffffffffff021916908373ffffffffffffffffffffffffffffffffffffffff1602179055508073ffffffffffffffffffffffffffffffffffffffff16600073ffffffffffffffffffffffffffffffffffffffff167f8be0079c531659141344cd1fd0a4f28419497f9722a3daafe3b4186f6b6457e060405160405180910390a350620003ce565b63ffffffff60e01b817bffffffffffffffffffffffffffffffffffffffffffffffffffffffff191614156200023f576040517f08c379a000000000000000000000000000000000000000000000000000000000815260040162000236906200039b565b60405180910390fd5b6001600080837bffffffffffffffffffffffffffffffffffffffffffffffffffffffff19167bffffffffffffffffffffffffffffffffffffffffffffffffffffffff1916815260200190815260200160002060006101000a81548160ff02191690831515021790555050565b600033905090565b828054600181600116156101000203166002900490600052602060002090601f016020900481019282601f10620002f657805160ff191683800117855562000327565b8280016001018555821562000327579182015b828111156200032657825182559160200191906001019062000309565b5b5090506200033691906200033a565b5090565b5b80821115620003555760008160009055506001016200033b565b5090565b600062000368601c83620003bd565b91507f4552433136353a20696e76616c696420696e74657266616365206964000000006000830152602082019050919050565b60006020820190508181036000830152620003b68162000359565b9050919050565b600082825260208201905092915050565b614b1d80620003de6000396000f3fe608060405234801561001057600080fd5b506004361061021b5760003560e01c80638b5b9ccc11610125578063c6bc5182116100ad578063ead2ae251161007c578063ead2ae2514610686578063eaec2858146106b6578063f2fde38b146106d4578063f34f4c96146106f0578063f71d96cb1461070e5761021b565b8063c6bc5182146105d8578063c87b56dd146105f6578063cd99a4af14610626578063e985e9c5146106565761021b565b8063a22cb465116100f4578063a22cb46514610538578063b1b6024914610554578063b88d4fde14610570578063bc37ca291461058c578063c1e03728146105a85761021b565b80638b5b9ccc146104c05780638da5cb5b146104de5780638ecefc06146104fc57806395d89b411461051a5761021b565b80632f745c59116101a85780636352211e116101775780636352211e146104085780636c0360eb1461043857806370a0823114610456578063715018a61461048657806383638710146104905761021b565b80632f745c591461035c57806342842e0e1461038c5780634f6ccce7146103a857806350f0aa99146103d85761021b565b8063081812fc116101ef578063081812fc146102ba578063095ea7b3146102ea5780631150191a1461030657806318160ddd1461032257806323b872dd146103405761021b565b806274419d1461022057806301ffc9a71461023c5780630385e1951461026c57806306fdde031461029c575b600080fd5b61023a60048036038101906102359190613973565b61073e565b005b610256600480360381019061025191906139f5565b61098c565b60405161026391906144e5565b60405180910390f35b610286600480360381019061028191906137cc565b6109f3565b604051610293919061479d565b60405180910390f35b6102a4610a3f565b6040516102b19190614500565b60405180910390f35b6102d460048036038101906102cf9190613a47565b610ae1565b6040516102e1919061441f565b60405180910390f35b61030460048036038101906102ff9190613937565b610b66565b005b610320600480360381019061031b91906139b4565b610c7e565b005b61032a61126b565b604051610337919061479d565b60405180910390f35b61035a60048036038101906103559190613831565b61127c565b005b61037660048036038101906103719190613937565b6112dc565b604051610383919061479d565b60405180910390f35b6103a660048036038101906103a19190613831565b611337565b005b6103c260048036038101906103bd9190613a47565b611357565b6040516103cf919061479d565b60405180910390f35b6103f260048036038101906103ed91906137cc565b61137a565b6040516103ff91906144c3565b60405180910390f35b610422600480360381019061041d9190613a47565b611411565b60405161042f919061441f565b60405180910390f35b610440611448565b60405161044d9190614500565b60405180910390f35b610470600480360381019061046b91906137cc565b6114ea565b60405161047d919061479d565b60405180910390f35b61048e6115a9565b005b6104aa60048036038101906104a59190613a47565b6116e6565b6040516104b7919061441f565b60405180910390f35b6104c86116f8565b6040516104d591906144a1565b60405180910390f35b6104e6611786565b6040516104f3919061441f565b60405180910390f35b6105046117b0565b60405161051191906144c3565b60405180910390f35b610522611845565b60405161052f9190614500565b60405180910390f35b610552600480360381019061054d91906138fb565b6118e7565b005b61056e60048036038101906105699190613973565b611a68565b005b61058a60048036038101906105859190613880565b611c2d565b005b6105a660048036038101906105a19190613a47565b611c8f565b005b6105c260048036038101906105bd9190613a47565b611f5b565b6040516105cf9190614782565b60405180910390f35b6105e0611fcb565b6040516105ed919061479d565b60405180910390f35b610610600480360381019061060b9190613a47565b611fd1565b60405161061d9190614500565b60405180910390f35b610640600480360381019061063b91906137cc565b612154565b60405161064d91906144c3565b60405180910390f35b610670600480360381019061066b91906137f5565b6121eb565b60405161067d91906144e5565b60405180910390f35b6106a0600480360381019061069b9190613a47565b61227f565b6040516106ad919061479d565b60405180910390f35b6106be6122a0565b6040516106cb91906144c3565b60405180910390f35b6106ee60048036038101906106e991906137cc565b6122f8565b005b6106f86124a4565b604051610705919061479d565b60405180910390f35b61072860048036038101906107239190613a47565b6124aa565b604051610735919061441f565b60405180910390f35b60005b81518110156108ee576040518060a00160405280600b54815260200183838151811061076957fe5b602002602001015160200151815260200183838151811061078657fe5b60200260200101516040015181526020018383815181106107a357fe5b602002602001015160600151815260200160011515815250600f6000600b5481526020019081526020016000206000820151816000015560208201518160010155604082015181600201556060820151816003015560808201518160040160006101000a81548160ff021916908315150217905550905050600d82828151811061082957fe5b6020026020010151604001519080600181540180825580915050600190039060005260206000200160009091909190915055601060003373ffffffffffffffffffffffffffffffffffffffff1673ffffffffffffffffffffffffffffffffffffffff168152602001908152602001600020600b5490806001815401808255809150506001900390600052602060002001600090919091909150556108cf33600b546124e6565b600b600081548092919060010191905055508080600101915050610741565b50600e339080600181540180825580915050600190039060005260206000200160009091909190916101000a81548173ffffffffffffffffffffffffffffffffffffffff021916908373ffffffffffffffffffffffffffffffffffffffff1602179055507fe25990158cef48394eca25688e50df28632515e25370a164815fa8151dc447e233604051610981919061443a565b60405180910390a150565b6000806000837bffffffffffffffffffffffffffffffffffffffffffffffffffffffff19167bffffffffffffffffffffffffffffffffffffffffffffffffffffffff1916815260200190815260200160002060009054906101000a900460ff169050919050565b6000601260008373ffffffffffffffffffffffffffffffffffffffff1673ffffffffffffffffffffffffffffffffffffffff168152602001908152602001600020600101549050919050565b606060068054600181600116156101000203166002900480601f016020809104026020016040519081016040528092919081815260200182805460018160011615610100020316600290048015610ad75780601f10610aac57610100808354040283529160200191610ad7565b820191906000526020600020905b815481529060010190602001808311610aba57829003601f168201915b5050505050905090565b6000610aec82612504565b610b2b576040517f08c379a0000000000000000000000000000000000000000000000000000000008152600401610b22906146a2565b60405180910390fd5b6004600083815260200190815260200160002060009054906101000a900473ffffffffffffffffffffffffffffffffffffffff169050919050565b6000610b7182611411565b90508073ffffffffffffffffffffffffffffffffffffffff168373ffffffffffffffffffffffffffffffffffffffff161415610be2576040517f08c379a0000000000000000000000000000000000000000000000000000000008152600401610bd990614722565b60405180910390fd5b8073ffffffffffffffffffffffffffffffffffffffff16610c01612521565b73ffffffffffffffffffffffffffffffffffffffff161480610c305750610c2f81610c2a612521565b6121eb565b5b610c6f576040517f08c379a0000000000000000000000000000000000000000000000000000000008152600401610c6690614622565b60405180910390fd5b610c798383612529565b505050565b6060601060003373ffffffffffffffffffffffffffffffffffffffff1673ffffffffffffffffffffffffffffffffffffffff168152602001908152602001600020805480602002602001604051908101604052809291908181526020018280548015610d0957602002820191906000526020600020905b815481526020019060010190808311610cf5575b50505050509050601060003373ffffffffffffffffffffffffffffffffffffffff1673ffffffffffffffffffffffffffffffffffffffff1681526020019081526020016000206000610d5b91906134a2565b600082600081518110610d6a57fe5b60200260200101519050600083600181518110610d8357fe5b6020026020010151905060005b8351811015610e5b5782848281518110610da657fe5b602002602001015114158015610dcf575081848281518110610dc457fe5b602002602001015114155b15610e4e57601060003373ffffffffffffffffffffffffffffffffffffffff1673ffffffffffffffffffffffffffffffffffffffff168152602001908152602001600020848281518110610e1f57fe5b602002602001015190806001815401808255809150506001900390600052602060002001600090919091909150555b8080600101915050610d90565b50601160003373ffffffffffffffffffffffffffffffffffffffff1673ffffffffffffffffffffffffffffffffffffffff168152602001908152602001600020829080600181540180825580915050600190039060005260206000200160009091909190915055601160003373ffffffffffffffffffffffffffffffffffffffff1673ffffffffffffffffffffffffffffffffffffffff1681526020019081526020016000208190806001815401808255809150506001900390600052602060002001600090919091909150557fe25990158cef48394eca25688e50df28632515e25370a164815fa8151dc447e233604051610f57919061443a565b60405180910390a16000601060003373ffffffffffffffffffffffffffffffffffffffff1673ffffffffffffffffffffffffffffffffffffffff16815260200190815260200160002080549050141561126557610fb26134c3565b601260003373ffffffffffffffffffffffffffffffffffffffff1673ffffffffffffffffffffffffffffffffffffffff1681526020019081526020016000206040518060600160405290816000820180548060200260200160405190810160405280929190818152602001828054801561104b57602002820191906000526020600020905b815481526020019060010190808311611037575b50505050508152602001600182015481526020016002820160009054906101000a900460ff16151515158152505090508060400151611113576060600167ffffffffffffffff8111801561109e57600080fd5b506040519080825280602002602001820160405280156110cd5781602001602082028036833780820191505090505b509050600c54816000815181106110e057fe5b602002602001018181525050604051806060016040528082815260200160018152602001600115158152509150506111a2565b606060018260000151510167ffffffffffffffff8111801561113457600080fd5b506040519080825280602002602001820160405280156111635781602001602082028036833780820191505090505b509050600c54818360000151518151811061117a57fe5b6020026020010181815250508082600001819052506001826020015101826020018181525050505b80601260003373ffffffffffffffffffffffffffffffffffffffff1673ffffffffffffffffffffffffffffffffffffffff16815260200190815260200160002060008201518160000190805190602001906111fe9291906134e6565b506020820151816001015560408201518160020160006101000a81548160ff0219169083151502179055509050507f3facaf99d92cb6d9f8f1607b7cc3dbd19e682adc2c0a4bfd5bc9f829b14943c13360405161125b919061443a565b60405180910390a1505b50505050565b600061127760026125e2565b905090565b61128d611287612521565b826125f7565b6112cc576040517f08c379a00000000000000000000000000000000000000000000000000000000081526004016112c390614742565b60405180910390fd5b6112d78383836126d5565b505050565b600061132f82600160008673ffffffffffffffffffffffffffffffffffffffff1673ffffffffffffffffffffffffffffffffffffffff1681526020019081526020016000206128ec90919063ffffffff16565b905092915050565b61135283838360405180602001604052806000815250611c2d565b505050565b60008061136e83600261290690919063ffffffff16565b50905080915050919050565b6060601060008373ffffffffffffffffffffffffffffffffffffffff1673ffffffffffffffffffffffffffffffffffffffff16815260200190815260200160002080548060200260200160405190810160405280929190818152602001828054801561140557602002820191906000526020600020905b8154815260200190600101908083116113f1575b50505050509050919050565b600061144182604051806060016040528060298152602001614abf6029913960026129329092919063ffffffff16565b9050919050565b606060098054600181600116156101000203166002900480601f0160208091040260200160405190810160405280929190818152602001828054600181600116156101000203166002900480156114e05780601f106114b5576101008083540402835291602001916114e0565b820191906000526020600020905b8154815290600101906020018083116114c357829003601f168201915b5050505050905090565b60008073ffffffffffffffffffffffffffffffffffffffff168273ffffffffffffffffffffffffffffffffffffffff16141561155b576040517f08c379a000000000000000000000000000000000000000000000000000000000815260040161155290614642565b60405180910390fd5b6115a2600160008473ffffffffffffffffffffffffffffffffffffffff1673ffffffffffffffffffffffffffffffffffffffff168152602001908152602001600020612951565b9050919050565b6115b1612521565b73ffffffffffffffffffffffffffffffffffffffff166115cf611786565b73ffffffffffffffffffffffffffffffffffffffff1614611625576040517f08c379a000000000000000000000000000000000000000000000000000000000815260040161161c906146c2565b60405180910390fd5b600073ffffffffffffffffffffffffffffffffffffffff16600a60009054906101000a900473ffffffffffffffffffffffffffffffffffffffff1673ffffffffffffffffffffffffffffffffffffffff167f8be0079c531659141344cd1fd0a4f28419497f9722a3daafe3b4186f6b6457e060405160405180910390a36000600a60006101000a81548173ffffffffffffffffffffffffffffffffffffffff021916908373ffffffffffffffffffffffffffffffffffffffff160217905550565b60006116f182611411565b9050919050565b6060600e80548060200260200160405190810160405280929190818152602001828054801561177c57602002820191906000526020600020905b8160009054906101000a900473ffffffffffffffffffffffffffffffffffffffff1673ffffffffffffffffffffffffffffffffffffffff1681526020019060010190808311611732575b5050505050905090565b6000600a60009054906101000a900473ffffffffffffffffffffffffffffffffffffffff16905090565b6060601060003373ffffffffffffffffffffffffffffffffffffffff1673ffffffffffffffffffffffffffffffffffffffff16815260200190815260200160002080548060200260200160405190810160405280929190818152602001828054801561183b57602002820191906000526020600020905b815481526020019060010190808311611827575b5050505050905090565b606060078054600181600116156101000203166002900480601f0160208091040260200160405190810160405280929190818152602001828054600181600116156101000203166002900480156118dd5780601f106118b2576101008083540402835291602001916118dd565b820191906000526020600020905b8154815290600101906020018083116118c057829003601f168201915b5050505050905090565b6118ef612521565b73ffffffffffffffffffffffffffffffffffffffff168273ffffffffffffffffffffffffffffffffffffffff16141561195d576040517f08c379a0000000000000000000000000000000000000000000000000000000008152600401611954906145c2565b60405180910390fd5b806005600061196a612521565b73ffffffffffffffffffffffffffffffffffffffff1673ffffffffffffffffffffffffffffffffffffffff16815260200190815260200160002060008473ffffffffffffffffffffffffffffffffffffffff1673ffffffffffffffffffffffffffffffffffffffff16815260200190815260200160002060006101000a81548160ff0219169083151502179055508173ffffffffffffffffffffffffffffffffffffffff16611a17612521565b73ffffffffffffffffffffffffffffffffffffffff167f17307eab39ab6107e8899845ad3d59bd9653f200f220920489ca2b5937696c3183604051611a5c91906144e5565b60405180910390a35050565b601060003373ffffffffffffffffffffffffffffffffffffffff1673ffffffffffffffffffffffffffffffffffffffff1681526020019081526020016000206000611ab391906134a2565b60005b8151811015611bf257611ac7613533565b600f6000848481518110611ad757fe5b60200260200101516000015181526020019081526020016000206040518060a0016040529081600082015481526020016001820154815260200160028201548152602001600382015481526020016004820160009054906101000a900460ff1615151515815250509050828281518110611b4d57fe5b60200260200101516080015181608001901515908115158152505060011515816080015115151415611be457601060003373ffffffffffffffffffffffffffffffffffffffff1673ffffffffffffffffffffffffffffffffffffffff168152602001908152602001600020816000015190806001815401808255809150506001900390600052602060002001600090919091909150555b508080600101915050611ab6565b507fe25990158cef48394eca25688e50df28632515e25370a164815fa8151dc447e233604051611c22919061443a565b60405180910390a150565b611c3e611c38612521565b836125f7565b611c7d576040517f08c379a0000000000000000000000000000000000000000000000000000000008152600401611c7490614742565b60405180910390fd5b611c8984848484612966565b50505050565b6000611c9a82611411565b9050611ca78133846126d5565b601060003373ffffffffffffffffffffffffffffffffffffffff1673ffffffffffffffffffffffffffffffffffffffff16815260200190815260200160002082908060018154018082558091505060019003906000526020600020016000909190919091505560606001601060008473ffffffffffffffffffffffffffffffffffffffff1673ffffffffffffffffffffffffffffffffffffffff168152602001908152602001600020805490500367ffffffffffffffff81118015611d6b57600080fd5b50604051908082528060200260200182016040528015611d9a5781602001602082028036833780820191505090505b5090506000805b601060008573ffffffffffffffffffffffffffffffffffffffff1673ffffffffffffffffffffffffffffffffffffffff16815260200190815260200160002080549050811015611ec95784601060008673ffffffffffffffffffffffffffffffffffffffff1673ffffffffffffffffffffffffffffffffffffffff1681526020019081526020016000208281548110611e3657fe5b906000526020600020015414611ebc57601060008573ffffffffffffffffffffffffffffffffffffffff1673ffffffffffffffffffffffffffffffffffffffff1681526020019081526020016000208181548110611e9057fe5b9060005260206000200154838381518110611ea757fe5b60200260200101818152505081806001019250505b8080600101915050611da1565b5081601060008573ffffffffffffffffffffffffffffffffffffffff1673ffffffffffffffffffffffffffffffffffffffff1681526020019081526020016000209080519060200190611f1d9291906134e6565b507fe25990158cef48394eca25688e50df28632515e25370a164815fa8151dc447e233604051611f4d919061443a565b60405180910390a150505050565b611f63613533565b600f60008381526020019081526020016000206040518060a0016040529081600082015481526020016001820154815260200160028201548152602001600382015481526020016004820160009054906101000a900460ff1615151515815250509050919050565b600b5481565b6060611fdc82612504565b61201b576040517f08c379a000000000000000000000000000000000000000000000000000000000815260040161201290614702565b60405180910390fd5b6060600860008481526020019081526020016000208054600181600116156101000203166002900480601f0160208091040260200160405190810160405280929190818152602001828054600181600116156101000203166002900480156120c45780601f10612099576101008083540402835291602001916120c4565b820191906000526020600020905b8154815290600101906020018083116120a757829003601f168201915b5050505050905060606120d5611448565b90506000815114156120eb57819250505061214f565b6000825111156121205780826040516020016121089291906143fb565b6040516020818303038152906040529250505061214f565b8061212a856129c2565b60405160200161213b9291906143fb565b604051602081830303815290604052925050505b919050565b6060601160008373ffffffffffffffffffffffffffffffffffffffff1673ffffffffffffffffffffffffffffffffffffffff1681526020019081526020016000208054806020026020016040519081016040528092919081815260200182805480156121df57602002820191906000526020600020905b8154815260200190600101908083116121cb575b50505050509050919050565b6000600560008473ffffffffffffffffffffffffffffffffffffffff1673ffffffffffffffffffffffffffffffffffffffff16815260200190815260200160002060008373ffffffffffffffffffffffffffffffffffffffff1673ffffffffffffffffffffffffffffffffffffffff16815260200190815260200160002060009054906101000a900460ff16905092915050565b600d818154811061228c57fe5b906000526020600020016000915090505481565b6060600d8054806020026020016040519081016040528092919081815260200182805480156122ee57602002820191906000526020600020905b8154815260200190600101908083116122da575b5050505050905090565b612300612521565b73ffffffffffffffffffffffffffffffffffffffff1661231e611786565b73ffffffffffffffffffffffffffffffffffffffff1614612374576040517f08c379a000000000000000000000000000000000000000000000000000000000815260040161236b906146c2565b60405180910390fd5b600073ffffffffffffffffffffffffffffffffffffffff168173ffffffffffffffffffffffffffffffffffffffff1614156123e4576040517f08c379a00000000000000000000000000000000000000000000000000000000081526004016123db90614562565b60405180910390fd5b8073ffffffffffffffffffffffffffffffffffffffff16600a60009054906101000a900473ffffffffffffffffffffffffffffffffffffffff1673ffffffffffffffffffffffffffffffffffffffff167f8be0079c531659141344cd1fd0a4f28419497f9722a3daafe3b4186f6b6457e060405160405180910390a380600a60006101000a81548173ffffffffffffffffffffffffffffffffffffffff021916908373ffffffffffffffffffffffffffffffffffffffff16021790555050565b600c5481565b600e81815481106124b757fe5b906000526020600020016000915054906101000a900473ffffffffffffffffffffffffffffffffffffffff1681565b612500828260405180602001604052806000815250612b09565b5050565b600061251a826002612b6490919063ffffffff16565b9050919050565b600033905090565b816004600083815260200190815260200160002060006101000a81548173ffffffffffffffffffffffffffffffffffffffff021916908373ffffffffffffffffffffffffffffffffffffffff160217905550808273ffffffffffffffffffffffffffffffffffffffff1661259c83611411565b73ffffffffffffffffffffffffffffffffffffffff167f8c5be1e5ebec7d5bd14f71427d1e84f3dd0314c0f7b2291e5b200ac8c7c3b92560405160405180910390a45050565b60006125f082600001612b7e565b9050919050565b600061260282612504565b612641576040517f08c379a000000000000000000000000000000000000000000000000000000000815260040161263890614602565b60405180910390fd5b600061264c83611411565b90508073ffffffffffffffffffffffffffffffffffffffff168473ffffffffffffffffffffffffffffffffffffffff1614806126bb57508373ffffffffffffffffffffffffffffffffffffffff166126a384610ae1565b73ffffffffffffffffffffffffffffffffffffffff16145b806126cc57506126cb81856121eb565b5b91505092915050565b8273ffffffffffffffffffffffffffffffffffffffff166126f582611411565b73ffffffffffffffffffffffffffffffffffffffff161461274b576040517f08c379a0000000000000000000000000000000000000000000000000000000008152600401612742906146e2565b60405180910390fd5b600073ffffffffffffffffffffffffffffffffffffffff168273ffffffffffffffffffffffffffffffffffffffff1614156127bb576040517f08c379a00000000000000000000000000000000000000000000000000000000081526004016127b2906145a2565b60405180910390fd5b6127c6838383612b8f565b6127d1600082612529565b61282281600160008673ffffffffffffffffffffffffffffffffffffffff1673ffffffffffffffffffffffffffffffffffffffff168152602001908152602001600020612b9490919063ffffffff16565b5061287481600160008573ffffffffffffffffffffffffffffffffffffffff1673ffffffffffffffffffffffffffffffffffffffff168152602001908152602001600020612bae90919063ffffffff16565b5061288b81836002612bc89092919063ffffffff16565b50808273ffffffffffffffffffffffffffffffffffffffff168473ffffffffffffffffffffffffffffffffffffffff167fddf252ad1be2c89b69c2b068fc378daa952ba7f163c4a11628f55a4df523b3ef60405160405180910390a4505050565b60006128fb8360000183612bfd565b60001c905092915050565b6000806000806129198660000186612c6a565b915091508160001c8160001c9350935050509250929050565b6000612945846000018460001b84612ced565b60001c90509392505050565b600061295f82600001612d7e565b9050919050565b6129718484846126d5565b61297d84848484612d8f565b6129bc576040517f08c379a00000000000000000000000000000000000000000000000000000000081526004016129b390614542565b60405180910390fd5b50505050565b60606000821415612a0a576040518060400160405280600181526020017f30000000000000000000000000000000000000000000000000000000000000008152509050612b04565b600082905060005b60008214612a34578080600101915050600a8281612a2c57fe5b049150612a12565b60608167ffffffffffffffff81118015612a4d57600080fd5b506040519080825280601f01601f191660200182016040528015612a805781602001600182028036833780820191505090505b50905060006001830390508593505b60008414612afc57600a8481612aa157fe5b0660300160f81b82828060019003935081518110612abb57fe5b60200101907effffffffffffffffffffffffffffffffffffffffffffffffffffffffffffff1916908160001a905350600a8481612af457fe5b049350612a8f565b819450505050505b919050565b612b138383612ef3565b612b206000848484612d8f565b612b5f576040517f08c379a0000000000000000000000000000000000000000000000000000000008152600401612b5690614542565b60405180910390fd5b505050565b6000612b76836000018360001b613081565b905092915050565b600081600001805490509050919050565b505050565b6000612ba6836000018360001b6130a4565b905092915050565b6000612bc0836000018360001b61318c565b905092915050565b6000612bf4846000018460001b8473ffffffffffffffffffffffffffffffffffffffff1660001b6131fc565b90509392505050565b600081836000018054905011612c48576040517f08c379a0000000000000000000000000000000000000000000000000000000008152600401612c3f90614522565b60405180910390fd5b826000018281548110612c5757fe5b9060005260206000200154905092915050565b60008082846000018054905011612cb6576040517f08c379a0000000000000000000000000000000000000000000000000000000008152600401612cad90614662565b60405180910390fd5b6000846000018481548110612cc757fe5b906000526020600020906002020190508060000154816001015492509250509250929050565b60008084600101600085815260200190815260200160002054905060008114158390612d4f576040517f08c379a0000000000000000000000000000000000000000000000000000000008152600401612d469190614500565b60405180910390fd5b50846000016001820381548110612d6257fe5b9060005260206000209060020201600101549150509392505050565b600081600001805490509050919050565b6000612db08473ffffffffffffffffffffffffffffffffffffffff166132d8565b612dbd5760019050612eeb565b6060612e8463150b7a0260e01b612dd2612521565b888787604051602401612de89493929190614455565b604051602081830303815290604052907bffffffffffffffffffffffffffffffffffffffffffffffffffffffff19166020820180517bffffffffffffffffffffffffffffffffffffffffffffffffffffffff8381831617835250505050604051806060016040528060328152602001614a8d603291398773ffffffffffffffffffffffffffffffffffffffff166132eb9092919063ffffffff16565b9050600081806020019051810190612e9c9190613a1e565b905063150b7a0260e01b7bffffffffffffffffffffffffffffffffffffffffffffffffffffffff1916817bffffffffffffffffffffffffffffffffffffffffffffffffffffffff191614925050505b949350505050565b600073ffffffffffffffffffffffffffffffffffffffff168273ffffffffffffffffffffffffffffffffffffffff161415612f63576040517f08c379a0000000000000000000000000000000000000000000000000000000008152600401612f5a90614682565b60405180910390fd5b612f6c81612504565b15612fac576040517f08c379a0000000000000000000000000000000000000000000000000000000008152600401612fa390614582565b60405180910390fd5b612fb860008383612b8f565b61300981600160008573ffffffffffffffffffffffffffffffffffffffff1673ffffffffffffffffffffffffffffffffffffffff168152602001908152602001600020612bae90919063ffffffff16565b5061302081836002612bc89092919063ffffffff16565b50808273ffffffffffffffffffffffffffffffffffffffff16600073ffffffffffffffffffffffffffffffffffffffff167fddf252ad1be2c89b69c2b068fc378daa952ba7f163c4a11628f55a4df523b3ef60405160405180910390a45050565b600080836001016000848152602001908152602001600020541415905092915050565b6000808360010160008481526020019081526020016000205490506000811461318057600060018203905060006001866000018054905003905060008660000182815481106130ef57fe5b906000526020600020015490508087600001848154811061310c57fe5b906000526020600020018190555060018301876001016000838152602001908152602001600020819055508660000180548061314457fe5b60019003818190600052602060002001600090559055866001016000878152602001908152602001600020600090556001945050505050613186565b60009150505b92915050565b60006131988383613303565b6131f15782600001829080600181540180825580915050600190039060005260206000200160009091909190915055826000018054905083600101600084815260200190815260200160002081905550600190506131f6565b600090505b92915050565b60008084600101600085815260200190815260200160002054905060008114156132a3578460000160405180604001604052808681526020018581525090806001815401808255809150506001900390600052602060002090600202016000909190919091506000820151816000015560208201518160010155505084600001805490508560010160008681526020019081526020016000208190555060019150506132d1565b828560000160018303815481106132b657fe5b90600052602060002090600202016001018190555060009150505b9392505050565b600080823b905060008111915050919050565b60606132fa8484600085613326565b90509392505050565b600080836001016000848152602001908152602001600020541415905092915050565b60608247101561336b576040517f08c379a0000000000000000000000000000000000000000000000000000000008152600401613362906145e2565b60405180910390fd5b613374856132d8565b6133b3576040517f08c379a00000000000000000000000000000000000000000000000000000000081526004016133aa90614762565b60405180910390fd5b600060608673ffffffffffffffffffffffffffffffffffffffff1685876040516133dd91906143e4565b60006040518083038185875af1925050503d806000811461341a576040519150601f19603f3d011682016040523d82523d6000602084013e61341f565b606091505b509150915061342f82828661343b565b92505050949350505050565b6060831561344b5782905061349b565b60008351111561345e5782518084602001fd5b816040517f08c379a00000000000000000000000000000000000000000000000000000000081526004016134929190614500565b60405180910390fd5b9392505050565b50805460008255906000526020600020908101906134c09190613564565b50565b604051806060016040528060608152602001600081526020016000151581525090565b828054828255906000526020600020908101928215613522579160200282015b82811115613521578251825591602001919060010190613506565b5b50905061352f9190613564565b5090565b6040518060a00160405280600081526020016000815260200160008152602001600081526020016000151581525090565b5b8082111561357d576000816000905550600101613565565b5090565b60008135905061359081614a30565b92915050565b600082601f8301126135a757600080fd5b81356135ba6135b5826147e5565b6147b8565b915081818352602084019350602081019050838560a08402820111156135df57600080fd5b60005b8381101561360f57816135f5888261372f565b845260208401935060a083019250506001810190506135e2565b5050505092915050565b600082601f83011261362a57600080fd5b813561363d6136388261480d565b6147b8565b9150818183526020840193506020810190508385602084028201111561366257600080fd5b60005b83811015613692578161367888826137b7565b845260208401935060208301925050600181019050613665565b5050505092915050565b6000813590506136ab81614a47565b92915050565b6000813590506136c081614a5e565b92915050565b6000815190506136d581614a5e565b92915050565b600082601f8301126136ec57600080fd5b81356136ff6136fa82614835565b6147b8565b9150808252602083016020830185838301111561371b57600080fd5b6137268382846149dd565b50505092915050565b600060a0828403121561374157600080fd5b61374b60a06147b8565b9050600061375b848285016137b7565b600083015250602061376f848285016137b7565b6020830152506040613783848285016137b7565b6040830152506060613797848285016137b7565b60608301525060806137ab8482850161369c565b60808301525092915050565b6000813590506137c681614a75565b92915050565b6000602082840312156137de57600080fd5b60006137ec84828501613581565b91505092915050565b6000806040838503121561380857600080fd5b600061381685828601613581565b925050602061382785828601613581565b9150509250929050565b60008060006060848603121561384657600080fd5b600061385486828701613581565b935050602061386586828701613581565b9250506040613876868287016137b7565b9150509250925092565b6000806000806080858703121561389657600080fd5b60006138a487828801613581565b94505060206138b587828801613581565b93505060406138c6878288016137b7565b925050606085013567ffffffffffffffff8111156138e357600080fd5b6138ef878288016136db565b91505092959194509250565b6000806040838503121561390e57600080fd5b600061391c85828601613581565b925050602061392d8582860161369c565b9150509250929050565b6000806040838503121561394a57600080fd5b600061395885828601613581565b9250506020613969858286016137b7565b9150509250929050565b60006020828403121561398557600080fd5b600082013567ffffffffffffffff81111561399f57600080fd5b6139ab84828501613596565b91505092915050565b6000602082840312156139c657600080fd5b600082013567ffffffffffffffff8111156139e057600080fd5b6139ec84828501613619565b91505092915050565b600060208284031215613a0757600080fd5b6000613a15848285016136b1565b91505092915050565b600060208284031215613a3057600080fd5b6000613a3e848285016136c6565b91505092915050565b600060208284031215613a5957600080fd5b6000613a67848285016137b7565b91505092915050565b6000613a7c8383613abe565b60208301905092915050565b6000613a9483836143c6565b60208301905092915050565b613aa9816149a7565b82525050565b613ab881614933565b82525050565b613ac781614921565b82525050565b613ad681614921565b82525050565b6000613ae782614881565b613af181856148c7565b9350613afc83614861565b8060005b83811015613b2d578151613b148882613a70565b9750613b1f836148ad565b925050600181019050613b00565b5085935050505092915050565b6000613b458261488c565b613b4f81856148d8565b9350613b5a83614871565b8060005b83811015613b8b578151613b728882613a88565b9750613b7d836148ba565b925050600181019050613b5e565b5085935050505092915050565b613ba181614945565b82525050565b613bb081614945565b82525050565b6000613bc182614897565b613bcb81856148e9565b9350613bdb8185602086016149ec565b613be481614a1f565b840191505092915050565b6000613bfa82614897565b613c0481856148fa565b9350613c148185602086016149ec565b80840191505092915050565b6000613c2b826148a2565b613c358185614905565b9350613c458185602086016149ec565b613c4e81614a1f565b840191505092915050565b6000613c64826148a2565b613c6e8185614916565b9350613c7e8185602086016149ec565b80840191505092915050565b6000613c97602283614905565b91507f456e756d657261626c655365743a20696e646578206f7574206f6620626f756e60008301527f64730000000000000000000000000000000000000000000000000000000000006020830152604082019050919050565b6000613cfd603283614905565b91507f4552433732313a207472616e7366657220746f206e6f6e20455243373231526560008301527f63656976657220696d706c656d656e74657200000000000000000000000000006020830152604082019050919050565b6000613d63602683614905565b91507f4f776e61626c653a206e6577206f776e657220697320746865207a65726f206160008301527f64647265737300000000000000000000000000000000000000000000000000006020830152604082019050919050565b6000613dc9601c83614905565b91507f4552433732313a20746f6b656e20616c7265616479206d696e746564000000006000830152602082019050919050565b6000613e09602483614905565b91507f4552433732313a207472616e7366657220746f20746865207a65726f2061646460008301527f72657373000000000000000000000000000000000000000000000000000000006020830152604082019050919050565b6000613e6f601983614905565b91507f4552433732313a20617070726f766520746f2063616c6c6572000000000000006000830152602082019050919050565b6000613eaf602683614905565b91507f416464726573733a20696e73756666696369656e742062616c616e636520666f60008301527f722063616c6c00000000000000000000000000000000000000000000000000006020830152604082019050919050565b6000613f15602c83614905565b91507f4552433732313a206f70657261746f7220717565727920666f72206e6f6e657860008301527f697374656e7420746f6b656e00000000000000000000000000000000000000006020830152604082019050919050565b6000613f7b603883614905565b91507f4552433732313a20617070726f76652063616c6c6572206973206e6f74206f7760008301527f6e6572206e6f7220617070726f76656420666f7220616c6c00000000000000006020830152604082019050919050565b6000613fe1602a83614905565b91507f4552433732313a2062616c616e636520717565727920666f7220746865207a6560008301527f726f2061646472657373000000000000000000000000000000000000000000006020830152604082019050919050565b6000614047602283614905565b91507f456e756d657261626c654d61703a20696e646578206f7574206f6620626f756e60008301527f64730000000000000000000000000000000000000000000000000000000000006020830152604082019050919050565b60006140ad602083614905565b91507f4552433732313a206d696e7420746f20746865207a65726f20616464726573736000830152602082019050919050565b60006140ed602c83614905565b91507f4552433732313a20617070726f76656420717565727920666f72206e6f6e657860008301527f697374656e7420746f6b656e00000000000000000000000000000000000000006020830152604082019050919050565b6000614153602083614905565b91507f4f776e61626c653a2063616c6c6572206973206e6f7420746865206f776e65726000830152602082019050919050565b6000614193602983614905565b91507f4552433732313a207472616e73666572206f6620746f6b656e2074686174206960008301527f73206e6f74206f776e00000000000000000000000000000000000000000000006020830152604082019050919050565b60006141f9602f83614905565b91507f4552433732314d657461646174613a2055524920717565727920666f72206e6f60008301527f6e6578697374656e7420746f6b656e00000000000000000000000000000000006020830152604082019050919050565b600061425f602183614905565b91507f4552433732313a20617070726f76616c20746f2063757272656e74206f776e6560008301527f72000000000000000000000000000000000000000000000000000000000000006020830152604082019050919050565b60006142c5603183614905565b91507f4552433732313a207472616e736665722063616c6c6572206973206e6f74206f60008301527f776e6572206e6f7220617070726f7665640000000000000000000000000000006020830152604082019050919050565b600061432b601d83614905565b91507f416464726573733a2063616c6c20746f206e6f6e2d636f6e74726163740000006000830152602082019050919050565b60a08201600082015161437460008501826143c6565b50602082015161438760208501826143c6565b50604082015161439a60408501826143c6565b5060608201516143ad60608501826143c6565b5060808201516143c06080850182613b98565b50505050565b6143cf8161499d565b82525050565b6143de8161499d565b82525050565b60006143f08284613bef565b915081905092915050565b60006144078285613c59565b91506144138284613c59565b91508190509392505050565b60006020820190506144346000830184613acd565b92915050565b600060208201905061444f6000830184613aa0565b92915050565b600060808201905061446a6000830187613aaf565b6144776020830186613acd565b61448460408301856143d5565b81810360608301526144968184613bb6565b905095945050505050565b600060208201905081810360008301526144bb8184613adc565b905092915050565b600060208201905081810360008301526144dd8184613b3a565b905092915050565b60006020820190506144fa6000830184613ba7565b92915050565b6000602082019050818103600083015261451a8184613c20565b905092915050565b6000602082019050818103600083015261453b81613c8a565b9050919050565b6000602082019050818103600083015261455b81613cf0565b9050919050565b6000602082019050818103600083015261457b81613d56565b9050919050565b6000602082019050818103600083015261459b81613dbc565b9050919050565b600060208201905081810360008301526145bb81613dfc565b9050919050565b600060208201905081810360008301526145db81613e62565b9050919050565b600060208201905081810360008301526145fb81613ea2565b9050919050565b6000602082019050818103600083015261461b81613f08565b9050919050565b6000602082019050818103600083015261463b81613f6e565b9050919050565b6000602082019050818103600083015261465b81613fd4565b9050919050565b6000602082019050818103600083015261467b8161403a565b9050919050565b6000602082019050818103600083015261469b816140a0565b9050919050565b600060208201905081810360008301526146bb816140e0565b9050919050565b600060208201905081810360008301526146db81614146565b9050919050565b600060208201905081810360008301526146fb81614186565b9050919050565b6000602082019050818103600083015261471b816141ec565b9050919050565b6000602082019050818103600083015261473b81614252565b9050919050565b6000602082019050818103600083015261475b816142b8565b9050919050565b6000602082019050818103600083015261477b8161431e565b9050919050565b600060a082019050614797600083018461435e565b92915050565b60006020820190506147b260008301846143d5565b92915050565b6000604051905081810181811067ffffffffffffffff821117156147db57600080fd5b8060405250919050565b600067ffffffffffffffff8211156147fc57600080fd5b602082029050602081019050919050565b600067ffffffffffffffff82111561482457600080fd5b602082029050602081019050919050565b600067ffffffffffffffff82111561484c57600080fd5b601f19601f8301169050602081019050919050565b6000819050602082019050919050565b6000819050602082019050919050565b600081519050919050565b600081519050919050565b600081519050919050565b600081519050919050565b6000602082019050919050565b6000602082019050919050565b600082825260208201905092915050565b600082825260208201905092915050565b600082825260208201905092915050565b600081905092915050565b600082825260208201905092915050565b600081905092915050565b600061492c8261497d565b9050919050565b600061493e8261497d565b9050919050565b60008115159050919050565b60007fffffffff0000000000000000000000000000000000000000000000000000000082169050919050565b600073ffffffffffffffffffffffffffffffffffffffff82169050919050565b6000819050919050565b60006149b2826149b9565b9050919050565b60006149c4826149cb565b9050919050565b60006149d68261497d565b9050919050565b82818337600083830152505050565b60005b83811015614a0a5780820151818401526020810190506149ef565b83811115614a19576000848401525b50505050565b6000601f19601f8301169050919050565b614a3981614921565b8114614a4457600080fd5b50565b614a5081614945565b8114614a5b57600080fd5b50565b614a6781614951565b8114614a7257600080fd5b50565b614a7e8161499d565b8114614a8957600080fd5b5056fe4552433732313a207472616e7366657220746f206e6f6e20455243373231526563656976657220696d706c656d656e7465724552433732313a206f776e657220717565727920666f72206e6f6e6578697374656e7420746f6b656ea2646970667358221220b521a01062042bcd51592d91e36bf4a7e08000557bf06156957fdf5bec21ce7464736f6c634300060c0033",
  "immutableReferences": {},
  "source": "//truffle migrate --reset --network harmony_testnet\r\npragma solidity >=0.4.22 <0.8.0;\r\npragma experimental ABIEncoderV2;\r\n\r\nimport \"@openzeppelin/contracts/token/ERC721/ERC721.sol\";\r\nimport \"@openzeppelin/contracts/access/Ownable.sol\";\r\n\r\ncontract CardGame is ERC721, Ownable {\r\n\tconstructor() ERC721(\"CasinoNFT\", \"MOO\") public {\r\n\t}\r\n\r\n\tstruct Card {\r\n\t\tuint nftId;\r\n\t\tuint deckIdx;\r\n\t\tuint cardIdx;\r\n\t\tuint suitTypeIdx;\r\n\t\tbool isHandCard;\r\n\t}\r\n\r\n\tuint public nftId = 0;\r\n\tuint public currentDeckIdx = 0;\r\n\tuint[] public currentDeckTaken;\r\n\taddress[] public players;\r\n\r\n\tmapping(uint256 => Card) private _cardStack;\r\n\tmapping(address => uint[]) private _inHandTokens;\r\n\tmapping(address => uint[]) private _pairedTokens;\r\n\r\n\tstruct WonGame {\r\n\t\tuint[] gameDecks;\r\n\t\tuint count;\r\n\t\tbool isExist;\r\n\t}\r\n\tmapping(address => WonGame) private _gamesWon;\r\n\r\n\tevent HandMinted(address player);\r\n\tevent GameWonEvent(address player);\r\n\r\n\tfunction getTokenDetails(uint256 tokenId) public view returns (Card memory) {\r\n\t\treturn _cardStack[tokenId];\r\n\t}\r\n\r\n\tfunction getDeckTaken() public view returns (uint[] memory) {\r\n\t\treturn currentDeckTaken;\r\n\t}\r\n\t\r\n\tfunction getPlayers() public view returns(address [] memory) {\r\n\t\treturn players;\r\n\t}\r\n\r\n\tfunction getOwnerOf(uint256 tokenId) public view returns (address){\r\n\t\treturn ownerOf(tokenId);\r\n\t}\r\n\r\n\tfunction getInHandTokens(address myAddr) public view returns(uint [] memory) {\r\n\t\treturn _inHandTokens[myAddr];\r\n\t}\r\n\r\n\tfunction getInHandTokens2() public view returns(uint [] memory) {\r\n\t\treturn _inHandTokens[msg.sender];\r\n\t}\r\n\r\n\tfunction getPairedTokens(address myAddr) public view returns(uint [] memory) {\r\n\t\treturn _pairedTokens[myAddr];\r\n\t}\r\n\r\n\tfunction getGamesWon(address myAddr) public view returns(uint) {\r\n\t\treturn _gamesWon[myAddr].count;\r\n\t}\r\n\r\n\tfunction mintNewHand(Card[] memory card_hand) public {\r\n\t\tfor (uint i = 0; i < card_hand.length; i++) {\r\n\t\t\t// uint deckIdx = card_hand[i].deckIdx;\r\n\t\t\t_cardStack[nftId] = Card(nftId, card_hand[i].deckIdx, card_hand[i].cardIdx, card_hand[i].suitTypeIdx, true);\r\n\t\t\tcurrentDeckTaken.push(card_hand[i].cardIdx);\r\n\t\t\t_inHandTokens[msg.sender].push(nftId);\r\n\t\t\t_safeMint(msg.sender, nftId);\r\n\t\t\tnftId++;\r\n\t\t}\r\n\t\tplayers.push(msg.sender);\r\n\t\temit HandMinted(msg.sender);\r\n\t}\r\n\r\n\tfunction transferCard(uint _tokenId) public {\r\n\t\taddress orig_owner = ownerOf(_tokenId);\r\n\t\t_transfer(orig_owner, msg.sender, _tokenId);\r\n\t\t_inHandTokens[msg.sender].push(_tokenId);\r\n\r\n\t\t// uint[] memory tokensOrig = new uint[](_inHandTokens[orig_owner].length - 1);\r\n\r\n\t\tuint[] memory result = new uint[](_inHandTokens[orig_owner].length-1);\r\n\t\tuint count=0;\r\n\t\tfor (uint i = 0; i <_inHandTokens[orig_owner].length; i++) {\r\n\t\t\tif(_inHandTokens[orig_owner][i] != _tokenId) {\r\n\t\t\t\tresult[count] = _inHandTokens[orig_owner][i];\r\n\t\t\t\tcount++;\r\n\t\t\t}\r\n\t\t}\r\n\t\t_inHandTokens[orig_owner] = result;\r\n\t\temit HandMinted(msg.sender);\r\n\t}\r\n\r\n\t// function remove(uint index, uint[] memory array)  returns(uint[] memory) {\r\n    //     if (index >= array.length) return;\r\n\r\n    //     for (uint i = index; i<array.length-1; i++){\r\n    //         array[i] = array[i+1];\r\n    //     }\r\n    //     array.length--;\r\n    //     return array;\r\n    // }\r\n\r\n\tfunction updateHand_old(Card[] memory card_hand) public {\r\n\t\tdelete _inHandTokens[msg.sender];\r\n\t\tfor (uint i = 0; i < card_hand.length; i++) {\r\n\t\t\tCard memory cardObj = _cardStack[card_hand[i].nftId];\r\n\t\t\tcardObj.isHandCard = card_hand[i].isHandCard;\r\n\t\t\tif(cardObj.isHandCard == true) {\r\n\t\t\t\t_inHandTokens[msg.sender].push(cardObj.nftId);\r\n\t\t\t}\r\n\t\t}\r\n\t\temit HandMinted(msg.sender);\r\n\t}\r\n\r\n\tfunction updateHand(uint[] memory idx_pair) public {\r\n\t\tuint[] memory handTokens = _inHandTokens[msg.sender];\r\n\t\tdelete _inHandTokens[msg.sender];\r\n\t\tuint pair1 = idx_pair[0];\r\n\t\tuint pair2 = idx_pair[1];\r\n\t\tfor (uint i = 0; i < handTokens.length; i++) {\r\n\t\t\tif(handTokens[i]!=pair1 && handTokens[i]!=pair2) {\r\n\t\t\t\t_inHandTokens[msg.sender].push(handTokens[i]);\r\n\t\t\t}\r\n\t\t}\r\n\t\t_pairedTokens[msg.sender].push(pair1);\r\n\t\t_pairedTokens[msg.sender].push(pair2);\r\n\t\temit HandMinted(msg.sender);\r\n\r\n\t\tif(_inHandTokens[msg.sender].length == 0) {\r\n\t\t\tWonGame memory obj = _gamesWon[msg.sender];\r\n\t\t\tif(!obj.isExist) {\r\n\t\t\t\tuint[] memory gameDecks = new uint[](1);\r\n\t\t\t\tgameDecks[0] = currentDeckIdx;\r\n\t\t\t\tobj = WonGame(gameDecks, 1, true);\r\n\t\t\t} else {\r\n\t\t\t\tuint[] memory gameDecks = new uint[](obj.gameDecks.length+1);\r\n\t\t\t\tgameDecks[obj.gameDecks.length] = currentDeckIdx;\r\n\t\t\t\tobj.gameDecks = gameDecks;\r\n\t\t\t\tobj.count = obj.count+1;\r\n\t\t\t}\r\n\t\t\t_gamesWon[msg.sender] = obj;\r\n\t\t\temit GameWonEvent(msg.sender);\r\n\t\t}\r\n\t}\r\n}",
  "sourcePath": "C:/Users/swapp/Documents/MyProjects/Crypto/crypto_casino/truffle/contracts/CardGame.sol",
  "compiler": {
    "name": "solc",
    "version": "0.6.12+commit.27d51765.Emscripten.clang"
  },
  "schemaVersion": "3.4.1",
  "updatedAt": "2021-08-04T07:42:46.433Z",
  "networkType": "ethereum",
  "devdoc": {
    "kind": "dev",
    "methods": {
      "approve(address,uint256)": {
        "details": "See {IERC721-approve}."
      },
      "balanceOf(address)": {
        "details": "See {IERC721-balanceOf}."
      },
      "baseURI()": {
        "details": "Returns the base URI set via {_setBaseURI}. This will be automatically added as a prefix in {tokenURI} to each token's URI, or to the token ID if no specific URI is set for that token ID."
      },
      "getApproved(uint256)": {
        "details": "See {IERC721-getApproved}."
      },
      "isApprovedForAll(address,address)": {
        "details": "See {IERC721-isApprovedForAll}."
      },
      "name()": {
        "details": "See {IERC721Metadata-name}."
      },
      "owner()": {
        "details": "Returns the address of the current owner."
      },
      "ownerOf(uint256)": {
        "details": "See {IERC721-ownerOf}."
      },
      "renounceOwnership()": {
        "details": "Leaves the contract without owner. It will not be possible to call `onlyOwner` functions anymore. Can only be called by the current owner. NOTE: Renouncing ownership will leave the contract without an owner, thereby removing any functionality that is only available to the owner."
      },
      "safeTransferFrom(address,address,uint256)": {
        "details": "See {IERC721-safeTransferFrom}."
      },
      "safeTransferFrom(address,address,uint256,bytes)": {
        "details": "See {IERC721-safeTransferFrom}."
      },
      "setApprovalForAll(address,bool)": {
        "details": "See {IERC721-setApprovalForAll}."
      },
      "supportsInterface(bytes4)": {
        "details": "See {IERC165-supportsInterface}. Time complexity O(1), guaranteed to always use less than 30 000 gas."
      },
      "symbol()": {
        "details": "See {IERC721Metadata-symbol}."
      },
      "tokenByIndex(uint256)": {
        "details": "See {IERC721Enumerable-tokenByIndex}."
      },
      "tokenOfOwnerByIndex(address,uint256)": {
        "details": "See {IERC721Enumerable-tokenOfOwnerByIndex}."
      },
      "tokenURI(uint256)": {
        "details": "See {IERC721Metadata-tokenURI}."
      },
      "totalSupply()": {
        "details": "See {IERC721Enumerable-totalSupply}."
      },
      "transferFrom(address,address,uint256)": {
        "details": "See {IERC721-transferFrom}."
      },
      "transferOwnership(address)": {
        "details": "Transfers ownership of the contract to a new account (`newOwner`). Can only be called by the current owner."
      }
    },
    "version": 1
  },
  "userdoc": {
    "kind": "user",
    "methods": {},
    "version": 1
  }
}