{
  "contractName": "CardGame",
  "abi": [
    {
      "inputs": [],
      "stateMutability": "nonpayable",
      "type": "constructor"
    },
    {
      "anonymous": false,
      "inputs": [
        {
          "indexed": true,
          "internalType": "address",
          "name": "owner",
          "type": "address"
        },
        {
          "indexed": true,
          "internalType": "address",
          "name": "approved",
          "type": "address"
        },
        {
          "indexed": true,
          "internalType": "uint256",
          "name": "tokenId",
          "type": "uint256"
        }
      ],
      "name": "Approval",
      "type": "event"
    },
    {
      "anonymous": false,
      "inputs": [
        {
          "indexed": true,
          "internalType": "address",
          "name": "owner",
          "type": "address"
        },
        {
          "indexed": true,
          "internalType": "address",
          "name": "operator",
          "type": "address"
        },
        {
          "indexed": false,
          "internalType": "bool",
          "name": "approved",
          "type": "bool"
        }
      ],
      "name": "ApprovalForAll",
      "type": "event"
    },
    {
      "anonymous": false,
      "inputs": [
        {
          "indexed": false,
          "internalType": "address",
          "name": "player",
          "type": "address"
        }
      ],
      "name": "HandMinted",
      "type": "event"
    },
    {
      "anonymous": false,
      "inputs": [
        {
          "indexed": true,
          "internalType": "address",
          "name": "previousOwner",
          "type": "address"
        },
        {
          "indexed": true,
          "internalType": "address",
          "name": "newOwner",
          "type": "address"
        }
      ],
      "name": "OwnershipTransferred",
      "type": "event"
    },
    {
      "anonymous": false,
      "inputs": [
        {
          "indexed": true,
          "internalType": "address",
          "name": "from",
          "type": "address"
        },
        {
          "indexed": true,
          "internalType": "address",
          "name": "to",
          "type": "address"
        },
        {
          "indexed": true,
          "internalType": "uint256",
          "name": "tokenId",
          "type": "uint256"
        }
      ],
      "name": "Transfer",
      "type": "event"
    },
    {
      "inputs": [
        {
          "internalType": "address",
          "name": "to",
          "type": "address"
        },
        {
          "internalType": "uint256",
          "name": "tokenId",
          "type": "uint256"
        }
      ],
      "name": "approve",
      "outputs": [],
      "stateMutability": "nonpayable",
      "type": "function"
    },
    {
      "inputs": [
        {
          "internalType": "address",
          "name": "owner",
          "type": "address"
        }
      ],
      "name": "balanceOf",
      "outputs": [
        {
          "internalType": "uint256",
          "name": "",
          "type": "uint256"
        }
      ],
      "stateMutability": "view",
      "type": "function",
      "constant": true
    },
    {
      "inputs": [],
      "name": "baseURI",
      "outputs": [
        {
          "internalType": "string",
          "name": "",
          "type": "string"
        }
      ],
      "stateMutability": "view",
      "type": "function",
      "constant": true
    },
    {
      "inputs": [
        {
          "internalType": "uint256",
          "name": "tokenId",
          "type": "uint256"
        }
      ],
      "name": "getApproved",
      "outputs": [
        {
          "internalType": "address",
          "name": "",
          "type": "address"
        }
      ],
      "stateMutability": "view",
      "type": "function",
      "constant": true
    },
    {
      "inputs": [
        {
          "internalType": "address",
          "name": "owner",
          "type": "address"
        },
        {
          "internalType": "address",
          "name": "operator",
          "type": "address"
        }
      ],
      "name": "isApprovedForAll",
      "outputs": [
        {
          "internalType": "bool",
          "name": "",
          "type": "bool"
        }
      ],
      "stateMutability": "view",
      "type": "function",
      "constant": true
    },
    {
      "inputs": [],
      "name": "name",
      "outputs": [
        {
          "internalType": "string",
          "name": "",
          "type": "string"
        }
      ],
      "stateMutability": "view",
      "type": "function",
      "constant": true
    },
    {
      "inputs": [],
      "name": "nftId",
      "outputs": [
        {
          "internalType": "uint256",
          "name": "",
          "type": "uint256"
        }
      ],
      "stateMutability": "view",
      "type": "function",
      "constant": true
    },
    {
      "inputs": [],
      "name": "owner",
      "outputs": [
        {
          "internalType": "address",
          "name": "",
          "type": "address"
        }
      ],
      "stateMutability": "view",
      "type": "function",
      "constant": true
    },
    {
      "inputs": [
        {
          "internalType": "uint256",
          "name": "tokenId",
          "type": "uint256"
        }
      ],
      "name": "ownerOf",
      "outputs": [
        {
          "internalType": "address",
          "name": "",
          "type": "address"
        }
      ],
      "stateMutability": "view",
      "type": "function",
      "constant": true
    },
    {
      "inputs": [],
      "name": "renounceOwnership",
      "outputs": [],
      "stateMutability": "nonpayable",
      "type": "function"
    },
    {
      "inputs": [
        {
          "internalType": "address",
          "name": "from",
          "type": "address"
        },
        {
          "internalType": "address",
          "name": "to",
          "type": "address"
        },
        {
          "internalType": "uint256",
          "name": "tokenId",
          "type": "uint256"
        }
      ],
      "name": "safeTransferFrom",
      "outputs": [],
      "stateMutability": "nonpayable",
      "type": "function"
    },
    {
      "inputs": [
        {
          "internalType": "address",
          "name": "from",
          "type": "address"
        },
        {
          "internalType": "address",
          "name": "to",
          "type": "address"
        },
        {
          "internalType": "uint256",
          "name": "tokenId",
          "type": "uint256"
        },
        {
          "internalType": "bytes",
          "name": "_data",
          "type": "bytes"
        }
      ],
      "name": "safeTransferFrom",
      "outputs": [],
      "stateMutability": "nonpayable",
      "type": "function"
    },
    {
      "inputs": [
        {
          "internalType": "address",
          "name": "operator",
          "type": "address"
        },
        {
          "internalType": "bool",
          "name": "approved",
          "type": "bool"
        }
      ],
      "name": "setApprovalForAll",
      "outputs": [],
      "stateMutability": "nonpayable",
      "type": "function"
    },
    {
      "inputs": [
        {
          "internalType": "bytes4",
          "name": "interfaceId",
          "type": "bytes4"
        }
      ],
      "name": "supportsInterface",
      "outputs": [
        {
          "internalType": "bool",
          "name": "",
          "type": "bool"
        }
      ],
      "stateMutability": "view",
      "type": "function",
      "constant": true
    },
    {
      "inputs": [],
      "name": "symbol",
      "outputs": [
        {
          "internalType": "string",
          "name": "",
          "type": "string"
        }
      ],
      "stateMutability": "view",
      "type": "function",
      "constant": true
    },
    {
      "inputs": [
        {
          "internalType": "uint256",
          "name": "index",
          "type": "uint256"
        }
      ],
      "name": "tokenByIndex",
      "outputs": [
        {
          "internalType": "uint256",
          "name": "",
          "type": "uint256"
        }
      ],
      "stateMutability": "view",
      "type": "function",
      "constant": true
    },
    {
      "inputs": [
        {
          "internalType": "address",
          "name": "owner",
          "type": "address"
        },
        {
          "internalType": "uint256",
          "name": "index",
          "type": "uint256"
        }
      ],
      "name": "tokenOfOwnerByIndex",
      "outputs": [
        {
          "internalType": "uint256",
          "name": "",
          "type": "uint256"
        }
      ],
      "stateMutability": "view",
      "type": "function",
      "constant": true
    },
    {
      "inputs": [
        {
          "internalType": "uint256",
          "name": "tokenId",
          "type": "uint256"
        }
      ],
      "name": "tokenURI",
      "outputs": [
        {
          "internalType": "string",
          "name": "",
          "type": "string"
        }
      ],
      "stateMutability": "view",
      "type": "function",
      "constant": true
    },
    {
      "inputs": [],
      "name": "totalSupply",
      "outputs": [
        {
          "internalType": "uint256",
          "name": "",
          "type": "uint256"
        }
      ],
      "stateMutability": "view",
      "type": "function",
      "constant": true
    },
    {
      "inputs": [
        {
          "internalType": "address",
          "name": "from",
          "type": "address"
        },
        {
          "internalType": "address",
          "name": "to",
          "type": "address"
        },
        {
          "internalType": "uint256",
          "name": "tokenId",
          "type": "uint256"
        }
      ],
      "name": "transferFrom",
      "outputs": [],
      "stateMutability": "nonpayable",
      "type": "function"
    },
    {
      "inputs": [
        {
          "internalType": "address",
          "name": "newOwner",
          "type": "address"
        }
      ],
      "name": "transferOwnership",
      "outputs": [],
      "stateMutability": "nonpayable",
      "type": "function"
    },
    {
      "inputs": [
        {
          "internalType": "uint256",
          "name": "tokenId",
          "type": "uint256"
        }
      ],
      "name": "getTokenDetails",
      "outputs": [
        {
          "components": [
            {
              "internalType": "uint256",
              "name": "deckIdx",
              "type": "uint256"
            },
            {
              "internalType": "uint256",
              "name": "cardIdx",
              "type": "uint256"
            },
            {
              "internalType": "uint256",
              "name": "suitTypeIdx",
              "type": "uint256"
            },
            {
              "internalType": "bool",
              "name": "isHandCard",
              "type": "bool"
            }
          ],
          "internalType": "struct CardGame.Card",
          "name": "",
          "type": "tuple"
        }
      ],
      "stateMutability": "view",
      "type": "function",
      "constant": true
    },
    {
      "inputs": [
        {
          "internalType": "uint256",
          "name": "tokenId",
          "type": "uint256"
        }
      ],
      "name": "getOwnerOf",
      "outputs": [
        {
          "internalType": "address",
          "name": "",
          "type": "address"
        }
      ],
      "stateMutability": "view",
      "type": "function",
      "constant": true
    },
    {
      "inputs": [
        {
          "internalType": "address",
          "name": "myAddr",
          "type": "address"
        }
      ],
      "name": "getInHandTokens",
      "outputs": [
        {
          "internalType": "uint256[]",
          "name": "",
          "type": "uint256[]"
        }
      ],
      "stateMutability": "view",
      "type": "function",
      "constant": true
    },
    {
      "inputs": [
        {
          "components": [
            {
              "internalType": "uint256",
              "name": "deckIdx",
              "type": "uint256"
            },
            {
              "internalType": "uint256",
              "name": "cardIdx",
              "type": "uint256"
            },
            {
              "internalType": "uint256",
              "name": "suitTypeIdx",
              "type": "uint256"
            },
            {
              "internalType": "bool",
              "name": "isHandCard",
              "type": "bool"
            }
          ],
          "internalType": "struct CardGame.Card[]",
          "name": "card_hand",
          "type": "tuple[]"
        }
      ],
      "name": "mintNewHand",
      "outputs": [],
      "stateMutability": "nonpayable",
      "type": "function"
    }
  ],
  "bytecode": "0x60806040526000600b553480156200001657600080fd5b506040518060400160405280600981526020017f436173696e6f4e465400000000000000000000000000000000000000000000008152506040518060400160405280600381526020017f4d4f4f00000000000000000000000000000000000000000000000000000000008152506200009b6301ffc9a760e01b620001ce60201b60201c565b8160069080519060200190620000b3929190620002ae565b508060079080519060200190620000cc929190620002ae565b50620000e56380ac58cd60e01b620001ce60201b60201c565b620000fd635b5e139f60e01b620001ce60201b60201c565b6200011563780e9d6360e01b620001ce60201b60201c565b5050600062000129620002a660201b60201c565b905080600a60006101000a81548173ffffffffffffffffffffffffffffffffffffffff021916908373ffffffffffffffffffffffffffffffffffffffff1602179055508073ffffffffffffffffffffffffffffffffffffffff16600073ffffffffffffffffffffffffffffffffffffffff167f8be0079c531659141344cd1fd0a4f28419497f9722a3daafe3b4186f6b6457e060405160405180910390a350620003c9565b63ffffffff60e01b817bffffffffffffffffffffffffffffffffffffffffffffffffffffffff191614156200023a576040517f08c379a0000000000000000000000000000000000000000000000000000000008152600401620002319062000396565b60405180910390fd5b6001600080837bffffffffffffffffffffffffffffffffffffffffffffffffffffffff19167bffffffffffffffffffffffffffffffffffffffffffffffffffffffff1916815260200190815260200160002060006101000a81548160ff02191690831515021790555050565b600033905090565b828054600181600116156101000203166002900490600052602060002090601f016020900481019282601f10620002f157805160ff191683800117855562000322565b8280016001018555821562000322579182015b828111156200032157825182559160200191906001019062000304565b5b50905062000331919062000335565b5090565b5b808211156200035057600081600090555060010162000336565b5090565b600062000363601c83620003b8565b91507f4552433136353a20696e76616c696420696e74657266616365206964000000006000830152602082019050919050565b60006020820190508181036000830152620003b18162000354565b9050919050565b600082825260208201905092915050565b61386080620003d96000396000f3fe608060405234801561001057600080fd5b50600436106101735760003560e01c806370a08231116100de578063b88d4fde11610097578063c87b56dd11610071578063c87b56dd14610472578063e985e9c5146104a2578063f2fde38b146104d2578063fc106758146104ee57610173565b8063b88d4fde14610408578063c1e0372814610424578063c6bc51821461045457610173565b806370a0823114610346578063715018a61461037657806383638710146103805780638da5cb5b146103b057806395d89b41146103ce578063a22cb465146103ec57610173565b80632f745c59116101305780632f745c591461024c57806342842e0e1461027c5780634f6ccce71461029857806350f0aa99146102c85780636352211e146102f85780636c0360eb1461032857610173565b806301ffc9a71461017857806306fdde03146101a8578063081812fc146101c6578063095ea7b3146101f657806318160ddd1461021257806323b872dd14610230575b600080fd5b610192600480360381019061018d9190612853565b61050a565b60405161019f9190613289565b60405180910390f35b6101b0610571565b6040516101bd91906132a4565b60405180910390f35b6101e060048036038101906101db91906128a5565b610613565b6040516101ed91906131e5565b60405180910390f35b610210600480360381019061020b91906127d6565b610698565b005b61021a6107b0565b6040516102279190613541565b60405180910390f35b61024a600480360381019061024591906126d0565b6107c1565b005b610266600480360381019061026191906127d6565b610821565b6040516102739190613541565b60405180910390f35b610296600480360381019061029191906126d0565b61087c565b005b6102b260048036038101906102ad91906128a5565b61089c565b6040516102bf9190613541565b60405180910390f35b6102e260048036038101906102dd919061266b565b6108bf565b6040516102ef9190613267565b60405180910390f35b610312600480360381019061030d91906128a5565b610956565b60405161031f91906131e5565b60405180910390f35b61033061098d565b60405161033d91906132a4565b60405180910390f35b610360600480360381019061035b919061266b565b610a2f565b60405161036d9190613541565b60405180910390f35b61037e610aee565b005b61039a600480360381019061039591906128a5565b610c2b565b6040516103a791906131e5565b60405180910390f35b6103b8610c3d565b6040516103c591906131e5565b60405180910390f35b6103d6610c67565b6040516103e391906132a4565b60405180910390f35b6104066004803603810190610401919061279a565b610d09565b005b610422600480360381019061041d919061271f565b610e8a565b005b61043e600480360381019061043991906128a5565b610eec565b60405161044b9190613526565b60405180910390f35b61045c610f52565b6040516104699190613541565b60405180910390f35b61048c600480360381019061048791906128a5565b610f58565b60405161049991906132a4565b60405180910390f35b6104bc60048036038101906104b79190612694565b6110db565b6040516104c99190613289565b60405180910390f35b6104ec60048036038101906104e7919061266b565b61116f565b005b61050860048036038101906105039190612812565b61131b565b005b6000806000837bffffffffffffffffffffffffffffffffffffffffffffffffffffffff19167bffffffffffffffffffffffffffffffffffffffffffffffffffffffff1916815260200190815260200160002060009054906101000a900460ff169050919050565b606060068054600181600116156101000203166002900480601f0160208091040260200160405190810160405280929190818152602001828054600181600116156101000203166002900480156106095780601f106105de57610100808354040283529160200191610609565b820191906000526020600020905b8154815290600101906020018083116105ec57829003601f168201915b5050505050905090565b600061061e826114d1565b61065d576040517f08c379a000000000000000000000000000000000000000000000000000000000815260040161065490613446565b60405180910390fd5b6004600083815260200190815260200160002060009054906101000a900473ffffffffffffffffffffffffffffffffffffffff169050919050565b60006106a382610956565b90508073ffffffffffffffffffffffffffffffffffffffff168373ffffffffffffffffffffffffffffffffffffffff161415610714576040517f08c379a000000000000000000000000000000000000000000000000000000000815260040161070b906134c6565b60405180910390fd5b8073ffffffffffffffffffffffffffffffffffffffff166107336114ee565b73ffffffffffffffffffffffffffffffffffffffff16148061076257506107618161075c6114ee565b6110db565b5b6107a1576040517f08c379a0000000000000000000000000000000000000000000000000000000008152600401610798906133c6565b60405180910390fd5b6107ab83836114f6565b505050565b60006107bc60026115af565b905090565b6107d26107cc6114ee565b826115c4565b610811576040517f08c379a0000000000000000000000000000000000000000000000000000000008152600401610808906134e6565b60405180910390fd5b61081c8383836116a2565b505050565b600061087482600160008673ffffffffffffffffffffffffffffffffffffffff1673ffffffffffffffffffffffffffffffffffffffff1681526020019081526020016000206118b990919063ffffffff16565b905092915050565b61089783838360405180602001604052806000815250610e8a565b505050565b6000806108b38360026118d390919063ffffffff16565b50905080915050919050565b6060600d60008373ffffffffffffffffffffffffffffffffffffffff1673ffffffffffffffffffffffffffffffffffffffff16815260200190815260200160002080548060200260200160405190810160405280929190818152602001828054801561094a57602002820191906000526020600020905b815481526020019060010190808311610936575b50505050509050919050565b6000610986826040518060600160405280602981526020016138026029913960026118ff9092919063ffffffff16565b9050919050565b606060098054600181600116156101000203166002900480601f016020809104026020016040519081016040528092919081815260200182805460018160011615610100020316600290048015610a255780601f106109fa57610100808354040283529160200191610a25565b820191906000526020600020905b815481529060010190602001808311610a0857829003601f168201915b5050505050905090565b60008073ffffffffffffffffffffffffffffffffffffffff168273ffffffffffffffffffffffffffffffffffffffff161415610aa0576040517f08c379a0000000000000000000000000000000000000000000000000000000008152600401610a97906133e6565b60405180910390fd5b610ae7600160008473ffffffffffffffffffffffffffffffffffffffff1673ffffffffffffffffffffffffffffffffffffffff16815260200190815260200160002061191e565b9050919050565b610af66114ee565b73ffffffffffffffffffffffffffffffffffffffff16610b14610c3d565b73ffffffffffffffffffffffffffffffffffffffff1614610b6a576040517f08c379a0000000000000000000000000000000000000000000000000000000008152600401610b6190613466565b60405180910390fd5b600073ffffffffffffffffffffffffffffffffffffffff16600a60009054906101000a900473ffffffffffffffffffffffffffffffffffffffff1673ffffffffffffffffffffffffffffffffffffffff167f8be0079c531659141344cd1fd0a4f28419497f9722a3daafe3b4186f6b6457e060405160405180910390a36000600a60006101000a81548173ffffffffffffffffffffffffffffffffffffffff021916908373ffffffffffffffffffffffffffffffffffffffff160217905550565b6000610c3682610956565b9050919050565b6000600a60009054906101000a900473ffffffffffffffffffffffffffffffffffffffff16905090565b606060078054600181600116156101000203166002900480601f016020809104026020016040519081016040528092919081815260200182805460018160011615610100020316600290048015610cff5780601f10610cd457610100808354040283529160200191610cff565b820191906000526020600020905b815481529060010190602001808311610ce257829003601f168201915b5050505050905090565b610d116114ee565b73ffffffffffffffffffffffffffffffffffffffff168273ffffffffffffffffffffffffffffffffffffffff161415610d7f576040517f08c379a0000000000000000000000000000000000000000000000000000000008152600401610d7690613366565b60405180910390fd5b8060056000610d8c6114ee565b73ffffffffffffffffffffffffffffffffffffffff1673ffffffffffffffffffffffffffffffffffffffff16815260200190815260200160002060008473ffffffffffffffffffffffffffffffffffffffff1673ffffffffffffffffffffffffffffffffffffffff16815260200190815260200160002060006101000a81548160ff0219169083151502179055508173ffffffffffffffffffffffffffffffffffffffff16610e396114ee565b73ffffffffffffffffffffffffffffffffffffffff167f17307eab39ab6107e8899845ad3d59bd9653f200f220920489ca2b5937696c3183604051610e7e9190613289565b60405180910390a35050565b610e9b610e956114ee565b836115c4565b610eda576040517f08c379a0000000000000000000000000000000000000000000000000000000008152600401610ed1906134e6565b60405180910390fd5b610ee684848484611933565b50505050565b610ef461248d565b600c60008381526020019081526020016000206040518060800160405290816000820154815260200160018201548152602001600282015481526020016003820160009054906101000a900460ff1615151515815250509050919050565b600b5481565b6060610f63826114d1565b610fa2576040517f08c379a0000000000000000000000000000000000000000000000000000000008152600401610f99906134a6565b60405180910390fd5b6060600860008481526020019081526020016000208054600181600116156101000203166002900480601f01602080910402602001604051908101604052809291908181526020018280546001816001161561010002031660029004801561104b5780601f106110205761010080835404028352916020019161104b565b820191906000526020600020905b81548152906001019060200180831161102e57829003601f168201915b50505050509050606061105c61098d565b90506000815114156110725781925050506110d6565b6000825111156110a757808260405160200161108f9291906131c1565b604051602081830303815290604052925050506110d6565b806110b18561198f565b6040516020016110c29291906131c1565b604051602081830303815290604052925050505b919050565b6000600560008473ffffffffffffffffffffffffffffffffffffffff1673ffffffffffffffffffffffffffffffffffffffff16815260200190815260200160002060008373ffffffffffffffffffffffffffffffffffffffff1673ffffffffffffffffffffffffffffffffffffffff16815260200190815260200160002060009054906101000a900460ff16905092915050565b6111776114ee565b73ffffffffffffffffffffffffffffffffffffffff16611195610c3d565b73ffffffffffffffffffffffffffffffffffffffff16146111eb576040517f08c379a00000000000000000000000000000000000000000000000000000000081526004016111e290613466565b60405180910390fd5b600073ffffffffffffffffffffffffffffffffffffffff168173ffffffffffffffffffffffffffffffffffffffff16141561125b576040517f08c379a000000000000000000000000000000000000000000000000000000000815260040161125290613306565b60405180910390fd5b8073ffffffffffffffffffffffffffffffffffffffff16600a60009054906101000a900473ffffffffffffffffffffffffffffffffffffffff1673ffffffffffffffffffffffffffffffffffffffff167f8be0079c531659141344cd1fd0a4f28419497f9722a3daafe3b4186f6b6457e060405160405180910390a380600a60006101000a81548173ffffffffffffffffffffffffffffffffffffffff021916908373ffffffffffffffffffffffffffffffffffffffff16021790555050565b60005b815181101561149657600082828151811061133557fe5b6020026020010151600001519050604051806080016040528084848151811061135a57fe5b602002602001015160000151815260200184848151811061137757fe5b602002602001015160200151815260200184848151811061139457fe5b602002602001015160400151815260200160011515815250600c6000600b54815260200190815260200160002060008201518160000155602082015181600101556040820151816002015560608201518160030160006101000a81548160ff021916908315150217905550905050600d60003373ffffffffffffffffffffffffffffffffffffffff1673ffffffffffffffffffffffffffffffffffffffff168152602001908152602001600020600b54908060018154018082558091505060019003906000526020600020016000909190919091505561147633600b54611ad6565b600b6000815480929190600101919050555050808060010191505061131e565b507fe25990158cef48394eca25688e50df28632515e25370a164815fa8151dc447e2336040516114c69190613200565b60405180910390a150565b60006114e7826002611af490919063ffffffff16565b9050919050565b600033905090565b816004600083815260200190815260200160002060006101000a81548173ffffffffffffffffffffffffffffffffffffffff021916908373ffffffffffffffffffffffffffffffffffffffff160217905550808273ffffffffffffffffffffffffffffffffffffffff1661156983610956565b73ffffffffffffffffffffffffffffffffffffffff167f8c5be1e5ebec7d5bd14f71427d1e84f3dd0314c0f7b2291e5b200ac8c7c3b92560405160405180910390a45050565b60006115bd82600001611b0e565b9050919050565b60006115cf826114d1565b61160e576040517f08c379a0000000000000000000000000000000000000000000000000000000008152600401611605906133a6565b60405180910390fd5b600061161983610956565b90508073ffffffffffffffffffffffffffffffffffffffff168473ffffffffffffffffffffffffffffffffffffffff16148061168857508373ffffffffffffffffffffffffffffffffffffffff1661167084610613565b73ffffffffffffffffffffffffffffffffffffffff16145b80611699575061169881856110db565b5b91505092915050565b8273ffffffffffffffffffffffffffffffffffffffff166116c282610956565b73ffffffffffffffffffffffffffffffffffffffff1614611718576040517f08c379a000000000000000000000000000000000000000000000000000000000815260040161170f90613486565b60405180910390fd5b600073ffffffffffffffffffffffffffffffffffffffff168273ffffffffffffffffffffffffffffffffffffffff161415611788576040517f08c379a000000000000000000000000000000000000000000000000000000000815260040161177f90613346565b60405180910390fd5b611793838383611b1f565b61179e6000826114f6565b6117ef81600160008673ffffffffffffffffffffffffffffffffffffffff1673ffffffffffffffffffffffffffffffffffffffff168152602001908152602001600020611b2490919063ffffffff16565b5061184181600160008573ffffffffffffffffffffffffffffffffffffffff1673ffffffffffffffffffffffffffffffffffffffff168152602001908152602001600020611b3e90919063ffffffff16565b5061185881836002611b589092919063ffffffff16565b50808273ffffffffffffffffffffffffffffffffffffffff168473ffffffffffffffffffffffffffffffffffffffff167fddf252ad1be2c89b69c2b068fc378daa952ba7f163c4a11628f55a4df523b3ef60405160405180910390a4505050565b60006118c88360000183611b8d565b60001c905092915050565b6000806000806118e68660000186611bfa565b915091508160001c8160001c9350935050509250929050565b6000611912846000018460001b84611c7d565b60001c90509392505050565b600061192c82600001611d0e565b9050919050565b61193e8484846116a2565b61194a84848484611d1f565b611989576040517f08c379a0000000000000000000000000000000000000000000000000000000008152600401611980906132e6565b60405180910390fd5b50505050565b606060008214156119d7576040518060400160405280600181526020017f30000000000000000000000000000000000000000000000000000000000000008152509050611ad1565b600082905060005b60008214611a01578080600101915050600a82816119f957fe5b0491506119df565b60608167ffffffffffffffff81118015611a1a57600080fd5b506040519080825280601f01601f191660200182016040528015611a4d5781602001600182028036833780820191505090505b50905060006001830390508593505b60008414611ac957600a8481611a6e57fe5b0660300160f81b82828060019003935081518110611a8857fe5b60200101907effffffffffffffffffffffffffffffffffffffffffffffffffffffffffffff1916908160001a905350600a8481611ac157fe5b049350611a5c565b819450505050505b919050565b611af0828260405180602001604052806000815250611e83565b5050565b6000611b06836000018360001b611ede565b905092915050565b600081600001805490509050919050565b505050565b6000611b36836000018360001b611f01565b905092915050565b6000611b50836000018360001b611fe9565b905092915050565b6000611b84846000018460001b8473ffffffffffffffffffffffffffffffffffffffff1660001b612059565b90509392505050565b600081836000018054905011611bd8576040517f08c379a0000000000000000000000000000000000000000000000000000000008152600401611bcf906132c6565b60405180910390fd5b826000018281548110611be757fe5b9060005260206000200154905092915050565b60008082846000018054905011611c46576040517f08c379a0000000000000000000000000000000000000000000000000000000008152600401611c3d90613406565b60405180910390fd5b6000846000018481548110611c5757fe5b906000526020600020906002020190508060000154816001015492509250509250929050565b60008084600101600085815260200190815260200160002054905060008114158390611cdf576040517f08c379a0000000000000000000000000000000000000000000000000000000008152600401611cd691906132a4565b60405180910390fd5b50846000016001820381548110611cf257fe5b9060005260206000209060020201600101549150509392505050565b600081600001805490509050919050565b6000611d408473ffffffffffffffffffffffffffffffffffffffff16612135565b611d4d5760019050611e7b565b6060611e1463150b7a0260e01b611d626114ee565b888787604051602401611d78949392919061321b565b604051602081830303815290604052907bffffffffffffffffffffffffffffffffffffffffffffffffffffffff19166020820180517bffffffffffffffffffffffffffffffffffffffffffffffffffffffff83818316178352505050506040518060600160405280603281526020016137d0603291398773ffffffffffffffffffffffffffffffffffffffff166121489092919063ffffffff16565b9050600081806020019051810190611e2c919061287c565b905063150b7a0260e01b7bffffffffffffffffffffffffffffffffffffffffffffffffffffffff1916817bffffffffffffffffffffffffffffffffffffffffffffffffffffffff191614925050505b949350505050565b611e8d8383612160565b611e9a6000848484611d1f565b611ed9576040517f08c379a0000000000000000000000000000000000000000000000000000000008152600401611ed0906132e6565b60405180910390fd5b505050565b600080836001016000848152602001908152602001600020541415905092915050565b60008083600101600084815260200190815260200160002054905060008114611fdd5760006001820390506000600186600001805490500390506000866000018281548110611f4c57fe5b9060005260206000200154905080876000018481548110611f6957fe5b9060005260206000200181905550600183018760010160008381526020019081526020016000208190555086600001805480611fa157fe5b60019003818190600052602060002001600090559055866001016000878152602001908152602001600020600090556001945050505050611fe3565b60009150505b92915050565b6000611ff583836122ee565b61204e578260000182908060018154018082558091505060019003906000526020600020016000909190919091505582600001805490508360010160008481526020019081526020016000208190555060019050612053565b600090505b92915050565b60008084600101600085815260200190815260200160002054905060008114156121005784600001604051806040016040528086815260200185815250908060018154018082558091505060019003906000526020600020906002020160009091909190915060008201518160000155602082015181600101555050846000018054905085600101600086815260200190815260200160002081905550600191505061212e565b8285600001600183038154811061211357fe5b90600052602060002090600202016001018190555060009150505b9392505050565b600080823b905060008111915050919050565b60606121578484600085612311565b90509392505050565b600073ffffffffffffffffffffffffffffffffffffffff168273ffffffffffffffffffffffffffffffffffffffff1614156121d0576040517f08c379a00000000000000000000000000000000000000000000000000000000081526004016121c790613426565b60405180910390fd5b6121d9816114d1565b15612219576040517f08c379a000000000000000000000000000000000000000000000000000000000815260040161221090613326565b60405180910390fd5b61222560008383611b1f565b61227681600160008573ffffffffffffffffffffffffffffffffffffffff1673ffffffffffffffffffffffffffffffffffffffff168152602001908152602001600020611b3e90919063ffffffff16565b5061228d81836002611b589092919063ffffffff16565b50808273ffffffffffffffffffffffffffffffffffffffff16600073ffffffffffffffffffffffffffffffffffffffff167fddf252ad1be2c89b69c2b068fc378daa952ba7f163c4a11628f55a4df523b3ef60405160405180910390a45050565b600080836001016000848152602001908152602001600020541415905092915050565b606082471015612356576040517f08c379a000000000000000000000000000000000000000000000000000000000815260040161234d90613386565b60405180910390fd5b61235f85612135565b61239e576040517f08c379a000000000000000000000000000000000000000000000000000000000815260040161239590613506565b60405180910390fd5b600060608673ffffffffffffffffffffffffffffffffffffffff1685876040516123c891906131aa565b60006040518083038185875af1925050503d8060008114612405576040519150601f19603f3d011682016040523d82523d6000602084013e61240a565b606091505b509150915061241a828286612426565b92505050949350505050565b6060831561243657829050612486565b6000835111156124495782518084602001fd5b816040517f08c379a000000000000000000000000000000000000000000000000000000000815260040161247d91906132a4565b60405180910390fd5b9392505050565b60405180608001604052806000815260200160008152602001600081526020016000151581525090565b6000813590506124c681613773565b92915050565b600082601f8301126124dd57600080fd5b81356124f06124eb82613589565b61355c565b9150818183526020840193506020810190508385608084028201111561251557600080fd5b60005b83811015612545578161252b88826125e2565b845260208401935060808301925050600181019050612518565b5050505092915050565b60008135905061255e8161378a565b92915050565b600081359050612573816137a1565b92915050565b600081519050612588816137a1565b92915050565b600082601f83011261259f57600080fd5b81356125b26125ad826135b1565b61355c565b915080825260208301602083018583830111156125ce57600080fd5b6125d9838284613720565b50505092915050565b6000608082840312156125f457600080fd5b6125fe608061355c565b9050600061260e84828501612656565b600083015250602061262284828501612656565b602083015250604061263684828501612656565b604083015250606061264a8482850161254f565b60608301525092915050565b600081359050612665816137b8565b92915050565b60006020828403121561267d57600080fd5b600061268b848285016124b7565b91505092915050565b600080604083850312156126a757600080fd5b60006126b5858286016124b7565b92505060206126c6858286016124b7565b9150509250929050565b6000806000606084860312156126e557600080fd5b60006126f3868287016124b7565b9350506020612704868287016124b7565b925050604061271586828701612656565b9150509250925092565b6000806000806080858703121561273557600080fd5b6000612743878288016124b7565b9450506020612754878288016124b7565b935050604061276587828801612656565b925050606085013567ffffffffffffffff81111561278257600080fd5b61278e8782880161258e565b91505092959194509250565b600080604083850312156127ad57600080fd5b60006127bb858286016124b7565b92505060206127cc8582860161254f565b9150509250929050565b600080604083850312156127e957600080fd5b60006127f7858286016124b7565b925050602061280885828601612656565b9150509250929050565b60006020828403121561282457600080fd5b600082013567ffffffffffffffff81111561283e57600080fd5b61284a848285016124cc565b91505092915050565b60006020828403121561286557600080fd5b600061287384828501612564565b91505092915050565b60006020828403121561288e57600080fd5b600061289c84828501612579565b91505092915050565b6000602082840312156128b757600080fd5b60006128c584828501612656565b91505092915050565b60006128da838361318c565b60208301905092915050565b6128ef816136ea565b82525050565b6128fe81613676565b82525050565b61290d81613664565b82525050565b600061291e826135ed565b612928818561361b565b9350612933836135dd565b8060005b8381101561296457815161294b88826128ce565b97506129568361360e565b925050600181019050612937565b5085935050505092915050565b61297a81613688565b82525050565b61298981613688565b82525050565b600061299a826135f8565b6129a4818561362c565b93506129b481856020860161372f565b6129bd81613762565b840191505092915050565b60006129d3826135f8565b6129dd818561363d565b93506129ed81856020860161372f565b80840191505092915050565b6000612a0482613603565b612a0e8185613648565b9350612a1e81856020860161372f565b612a2781613762565b840191505092915050565b6000612a3d82613603565b612a478185613659565b9350612a5781856020860161372f565b80840191505092915050565b6000612a70602283613648565b91507f456e756d657261626c655365743a20696e646578206f7574206f6620626f756e60008301527f64730000000000000000000000000000000000000000000000000000000000006020830152604082019050919050565b6000612ad6603283613648565b91507f4552433732313a207472616e7366657220746f206e6f6e20455243373231526560008301527f63656976657220696d706c656d656e74657200000000000000000000000000006020830152604082019050919050565b6000612b3c602683613648565b91507f4f776e61626c653a206e6577206f776e657220697320746865207a65726f206160008301527f64647265737300000000000000000000000000000000000000000000000000006020830152604082019050919050565b6000612ba2601c83613648565b91507f4552433732313a20746f6b656e20616c7265616479206d696e746564000000006000830152602082019050919050565b6000612be2602483613648565b91507f4552433732313a207472616e7366657220746f20746865207a65726f2061646460008301527f72657373000000000000000000000000000000000000000000000000000000006020830152604082019050919050565b6000612c48601983613648565b91507f4552433732313a20617070726f766520746f2063616c6c6572000000000000006000830152602082019050919050565b6000612c88602683613648565b91507f416464726573733a20696e73756666696369656e742062616c616e636520666f60008301527f722063616c6c00000000000000000000000000000000000000000000000000006020830152604082019050919050565b6000612cee602c83613648565b91507f4552433732313a206f70657261746f7220717565727920666f72206e6f6e657860008301527f697374656e7420746f6b656e00000000000000000000000000000000000000006020830152604082019050919050565b6000612d54603883613648565b91507f4552433732313a20617070726f76652063616c6c6572206973206e6f74206f7760008301527f6e6572206e6f7220617070726f76656420666f7220616c6c00000000000000006020830152604082019050919050565b6000612dba602a83613648565b91507f4552433732313a2062616c616e636520717565727920666f7220746865207a6560008301527f726f2061646472657373000000000000000000000000000000000000000000006020830152604082019050919050565b6000612e20602283613648565b91507f456e756d657261626c654d61703a20696e646578206f7574206f6620626f756e60008301527f64730000000000000000000000000000000000000000000000000000000000006020830152604082019050919050565b6000612e86602083613648565b91507f4552433732313a206d696e7420746f20746865207a65726f20616464726573736000830152602082019050919050565b6000612ec6602c83613648565b91507f4552433732313a20617070726f76656420717565727920666f72206e6f6e657860008301527f697374656e7420746f6b656e00000000000000000000000000000000000000006020830152604082019050919050565b6000612f2c602083613648565b91507f4f776e61626c653a2063616c6c6572206973206e6f7420746865206f776e65726000830152602082019050919050565b6000612f6c602983613648565b91507f4552433732313a207472616e73666572206f6620746f6b656e2074686174206960008301527f73206e6f74206f776e00000000000000000000000000000000000000000000006020830152604082019050919050565b6000612fd2602f83613648565b91507f4552433732314d657461646174613a2055524920717565727920666f72206e6f60008301527f6e6578697374656e7420746f6b656e00000000000000000000000000000000006020830152604082019050919050565b6000613038602183613648565b91507f4552433732313a20617070726f76616c20746f2063757272656e74206f776e6560008301527f72000000000000000000000000000000000000000000000000000000000000006020830152604082019050919050565b600061309e603183613648565b91507f4552433732313a207472616e736665722063616c6c6572206973206e6f74206f60008301527f776e6572206e6f7220617070726f7665640000000000000000000000000000006020830152604082019050919050565b6000613104601d83613648565b91507f416464726573733a2063616c6c20746f206e6f6e2d636f6e74726163740000006000830152602082019050919050565b60808201600082015161314d600085018261318c565b506020820151613160602085018261318c565b506040820151613173604085018261318c565b5060608201516131866060850182612971565b50505050565b613195816136e0565b82525050565b6131a4816136e0565b82525050565b60006131b682846129c8565b915081905092915050565b60006131cd8285612a32565b91506131d98284612a32565b91508190509392505050565b60006020820190506131fa6000830184612904565b92915050565b600060208201905061321560008301846128e6565b92915050565b600060808201905061323060008301876128f5565b61323d6020830186612904565b61324a604083018561319b565b818103606083015261325c818461298f565b905095945050505050565b600060208201905081810360008301526132818184612913565b905092915050565b600060208201905061329e6000830184612980565b92915050565b600060208201905081810360008301526132be81846129f9565b905092915050565b600060208201905081810360008301526132df81612a63565b9050919050565b600060208201905081810360008301526132ff81612ac9565b9050919050565b6000602082019050818103600083015261331f81612b2f565b9050919050565b6000602082019050818103600083015261333f81612b95565b9050919050565b6000602082019050818103600083015261335f81612bd5565b9050919050565b6000602082019050818103600083015261337f81612c3b565b9050919050565b6000602082019050818103600083015261339f81612c7b565b9050919050565b600060208201905081810360008301526133bf81612ce1565b9050919050565b600060208201905081810360008301526133df81612d47565b9050919050565b600060208201905081810360008301526133ff81612dad565b9050919050565b6000602082019050818103600083015261341f81612e13565b9050919050565b6000602082019050818103600083015261343f81612e79565b9050919050565b6000602082019050818103600083015261345f81612eb9565b9050919050565b6000602082019050818103600083015261347f81612f1f565b9050919050565b6000602082019050818103600083015261349f81612f5f565b9050919050565b600060208201905081810360008301526134bf81612fc5565b9050919050565b600060208201905081810360008301526134df8161302b565b9050919050565b600060208201905081810360008301526134ff81613091565b9050919050565b6000602082019050818103600083015261351f816130f7565b9050919050565b600060808201905061353b6000830184613137565b92915050565b6000602082019050613556600083018461319b565b92915050565b6000604051905081810181811067ffffffffffffffff8211171561357f57600080fd5b8060405250919050565b600067ffffffffffffffff8211156135a057600080fd5b602082029050602081019050919050565b600067ffffffffffffffff8211156135c857600080fd5b601f19601f8301169050602081019050919050565b6000819050602082019050919050565b600081519050919050565b600081519050919050565b600081519050919050565b6000602082019050919050565b600082825260208201905092915050565b600082825260208201905092915050565b600081905092915050565b600082825260208201905092915050565b600081905092915050565b600061366f826136c0565b9050919050565b6000613681826136c0565b9050919050565b60008115159050919050565b60007fffffffff0000000000000000000000000000000000000000000000000000000082169050919050565b600073ffffffffffffffffffffffffffffffffffffffff82169050919050565b6000819050919050565b60006136f5826136fc565b9050919050565b60006137078261370e565b9050919050565b6000613719826136c0565b9050919050565b82818337600083830152505050565b60005b8381101561374d578082015181840152602081019050613732565b8381111561375c576000848401525b50505050565b6000601f19601f8301169050919050565b61377c81613664565b811461378757600080fd5b50565b61379381613688565b811461379e57600080fd5b50565b6137aa81613694565b81146137b557600080fd5b50565b6137c1816136e0565b81146137cc57600080fd5b5056fe4552433732313a207472616e7366657220746f206e6f6e20455243373231526563656976657220696d706c656d656e7465724552433732313a206f776e657220717565727920666f72206e6f6e6578697374656e7420746f6b656ea26469706673582212208b04e26beb6adf5c6fb24769ad6fec2bd2555e51c00322a4467ea40358ee1ef064736f6c634300060c0033",
  "immutableReferences": {},
  "source": "pragma solidity >=0.4.22 <0.8.0;\r\npragma experimental ABIEncoderV2;\r\n\r\nimport \"@openzeppelin/contracts/token/ERC721/ERC721.sol\";\r\nimport \"@openzeppelin/contracts/access/Ownable.sol\";\r\n\r\ncontract CardGame is ERC721, Ownable {\r\n\tconstructor() ERC721(\"CasinoNFT\", \"MOO\") public {\r\n\t}\r\n\r\n\tstruct Card {\r\n\t\tuint deckIdx;\r\n\t\tuint cardIdx;\r\n\t\tuint suitTypeIdx;\r\n\t\tbool isHandCard;\r\n\t}\r\n\r\n\tuint public nftId = 0;\r\n\tmapping(uint256 => Card) private _cardStack;\r\n\tmapping(address => uint[]) private _inHandTokens;\r\n\tevent HandMinted(address player);\r\n\r\n\tfunction getTokenDetails(uint256 tokenId) public view returns (Card memory) {\r\n\t\treturn _cardStack[tokenId];\r\n\t}\r\n\r\n\tfunction getOwnerOf(uint256 tokenId) public view returns (address){\r\n\t\treturn ownerOf(tokenId);\r\n\t}\r\n\r\n\tfunction getInHandTokens(address myAddr) public view returns(uint [] memory) {\r\n\t\treturn _inHandTokens[myAddr];\r\n\t}\r\n\r\n\tfunction mintNewHand(Card[] memory card_hand) public {\r\n\t\tfor (uint i = 0; i < card_hand.length; i++) {\r\n\t\t\tuint deckIdx = card_hand[i].deckIdx;\r\n\t\t\t_cardStack[nftId] = Card(card_hand[i].deckIdx, card_hand[i].cardIdx, card_hand[i].suitTypeIdx, true);\r\n\t\t\t_inHandTokens[msg.sender].push(nftId);\r\n\t\t\t_safeMint(msg.sender, nftId);\r\n\t\t\tnftId++;\r\n\t\t}\r\n\t\temit HandMinted(msg.sender);\r\n\t}\r\n}",
  "sourcePath": "C:/Users/swapp/Documents/MyProjects/Crypto/crypto_casino/truffle/contracts/CardGame.sol",
  "compiler": {
    "name": "solc",
    "version": "0.6.12+commit.27d51765.Emscripten.clang"
  },
  "schemaVersion": "3.4.1",
  "updatedAt": "2021-07-28T08:47:03.985Z",
  "networkType": "ethereum",
  "devdoc": {
    "kind": "dev",
    "methods": {
      "approve(address,uint256)": {
        "details": "See {IERC721-approve}."
      },
      "balanceOf(address)": {
        "details": "See {IERC721-balanceOf}."
      },
      "baseURI()": {
        "details": "Returns the base URI set via {_setBaseURI}. This will be automatically added as a prefix in {tokenURI} to each token's URI, or to the token ID if no specific URI is set for that token ID."
      },
      "getApproved(uint256)": {
        "details": "See {IERC721-getApproved}."
      },
      "isApprovedForAll(address,address)": {
        "details": "See {IERC721-isApprovedForAll}."
      },
      "name()": {
        "details": "See {IERC721Metadata-name}."
      },
      "owner()": {
        "details": "Returns the address of the current owner."
      },
      "ownerOf(uint256)": {
        "details": "See {IERC721-ownerOf}."
      },
      "renounceOwnership()": {
        "details": "Leaves the contract without owner. It will not be possible to call `onlyOwner` functions anymore. Can only be called by the current owner. NOTE: Renouncing ownership will leave the contract without an owner, thereby removing any functionality that is only available to the owner."
      },
      "safeTransferFrom(address,address,uint256)": {
        "details": "See {IERC721-safeTransferFrom}."
      },
      "safeTransferFrom(address,address,uint256,bytes)": {
        "details": "See {IERC721-safeTransferFrom}."
      },
      "setApprovalForAll(address,bool)": {
        "details": "See {IERC721-setApprovalForAll}."
      },
      "supportsInterface(bytes4)": {
        "details": "See {IERC165-supportsInterface}. Time complexity O(1), guaranteed to always use less than 30 000 gas."
      },
      "symbol()": {
        "details": "See {IERC721Metadata-symbol}."
      },
      "tokenByIndex(uint256)": {
        "details": "See {IERC721Enumerable-tokenByIndex}."
      },
      "tokenOfOwnerByIndex(address,uint256)": {
        "details": "See {IERC721Enumerable-tokenOfOwnerByIndex}."
      },
      "tokenURI(uint256)": {
        "details": "See {IERC721Metadata-tokenURI}."
      },
      "totalSupply()": {
        "details": "See {IERC721Enumerable-totalSupply}."
      },
      "transferFrom(address,address,uint256)": {
        "details": "See {IERC721-transferFrom}."
      },
      "transferOwnership(address)": {
        "details": "Transfers ownership of the contract to a new account (`newOwner`). Can only be called by the current owner."
      }
    },
    "version": 1
  },
  "userdoc": {
    "kind": "user",
    "methods": {},
    "version": 1
  }
}